:020000040800F2
:100000001804002005010008A10200089902000858
:100010009D0200087101000825050008000000008D
:10002000000000000000000000000000C502000801
:100030007501000800000000A3020008C1040008C8
:100040001F0100081F0100081F0100081F01000810
:100050001F0100081F0100081F0100081F01000800
:100060001F0100081F0100081F0100081F010008F0
:100070001F0100081F0100081F0100081F010008E0
:100080001F0100081F0100081F0100081F010008D0
:100090001F0100081F0100081F0100081F010008C0
:1000A0001F0100081F0100081F0100081F010008B0
:1000B0001F0100081F0100081F0100081F010008A0
:1000C0001F0100081F0100081F0100081F01000890
:1000D0001F0100081F0100081F0100081F01000880
:1000E0001F0100081F0100081F010008DFF810D0E1
:1000F00000F02CF800480047D9050008AFF3008055
:10010000180400200648804706480047FEE7FEE73F
:10011000FEE7FEE7FEE7FEE7FEE7FEE7FEE7FEE7B7
:10012000C5040008ED00000840EA01039B0703D066
:1001300009E008C9121F08C0042AFAD203E011F826
:10014000013B00F8013B521EF9D27047064C074DA7
:1001500006E0E06840F0010394E807009847103497
:10016000AC42F6D3FFF7C6FF540600087406000839
:1001700000BFFEE770472DE9F0410246002500264A
:10018000002000230024002791F803C00CF00F0585
:1001900091F803C00CF0100CBCF1000F03D091F8E3
:1001A00002C04CEA050591F800C0BCF1000F31D047
:1001B000146800202BE04FF0010C0CFA00F3B1F8AA
:1001C00000C00CEA03069E4220D183004FF00F0CC2
:1001D0000CFA03F7BC4305FA03FC4CEA040491F85B
:1001E00003C0BCF1280F06D14FF0010C0CFA00FC43
:1001F000C2F814C00AE091F803C0BCF1480F05D161
:100200004FF0010C0CFA00FCC2F810C0401C08288A
:10021000D1D31460B1F800C0BCF1FF0F34DD5468D5
:1002200000202EE000F1080C4FF0010808FA0CF352
:10023000B1F800C00CEA03069E4221D183004FF0C2
:100240000F0C0CFA03F7BC4305FA03FC4CEA040458
:1002500091F803C0BCF1280F05D100F1080C08FA91
:100260000CF8C2F8148091F803C0BCF1480F07D114
:1002700000F1080C4FF0010808FA0CF8C2F81080E1
:10028000401C0828CED35460BDE8F081416170471E
:1002900001617047C160704700BFFEE700BFFEE725
:1002A0007047704729B1064A92690243044B9A612C
:1002B00004E0034A92698243014B9A61704700004F
:1002C000001002407047000010B504460A2C38D2D6
:1002D000DFE804F0050A0F14191E23282D327E21B1
:1002E0001948FFF7D3FF2DE00C211748FFF7CEFF89
:1002F00028E0B6211448FFF7C9FF23E09E211248E9
:10030000FFF7C4FF1EE0CC210F48FFF7BFFF19E045
:10031000DA210D48FFF7BAFF14E0FA210A48FFF787
:10032000B5FF0FE00E210848FFF7B0FF0AE0FE21FD
:100330000548FFF7ABFF05E0DE210348FFF7A6FF06
:1003400000E000BF00BF10BD0008014010B586B03E
:1003500004461422074901A8FFF7E6FE0A2C01DB38
:1003600006B010BD01A830F814100348FFF792FF43
:1003700000BFF5E7400600080008014008B501216C
:100380000420FFF78FFFFE20ADF8000003208DF85A
:10039000020010208DF8030069460448FFF7EBFEC9
:1003A000FE210248FFF774FF08BD0000000801406D
:1003B00010B500F001F810BD0CB5002001900090C0
:1003C0003348006840F480303149086000BF30484D
:1003D000006800F4003000900198401C01900098E3
:1003E00018B90198B0F5A06FF1D12948006800F460
:1003F000003010B10120009001E000200090009832
:10040000012843D12348006840F0100021490860CA
:100410000846006820F0070008600846006840F0C1
:10042000020008601A484068194948600846406858
:1004300048600846406840F480604860084640686C
:1004400020F47C1048600846406840F4E81048609A
:100450000846006840F08070086000BF0C480068E3
:1004600000F000700028F9D00948406820F003002F
:10047000074948600846406840F00200486000BFF5
:100480000348406800F00C000828F9D10CBD0000BA
:100490000010024000200240042808D14FF0E02163
:1004A000096941F004014FF0E022116107E04FF0CB
:1004B000E021096921F004014FF0E0221161704749
:1004C0007047000010B51348006840F00100114962
:1004D000086008464068104908400E4948600846D0
:1004E00000680E4908400B4908600846006820F47F
:1004F000802008600846406820F4FE0048604FF401
:100500001F008860FFF754FF4FF000600449086047
:1005100010BD0000001002400000FFF8FFFFF6FED3
:1005200008ED00E000BFFEE702E008C8121F08C1A6
:10053000002AFAD170477047002001E001C1121F64
:10054000002AFBD17047000010B56FF00400FFF7E0
:10055000A3FF0A4800680A49B0FBF1F00949087096
:100560000846007800EB4001C1EBC0104FF6FF7168
:1005700001EAC0000449088010BD0000000000200E
:1005800000127A0014000020160000200146114AD3
:1005900012884A434FF0E0235A6100229A611A46BA
:1005A000126942F001021A6100BF4FF0E0221069A7
:1005B00000F001021AB100F48032002AF5D04FF0A9
:1005C000E022126922F001024FF0E0231A610022BA
:1005D0009A61704716000020FFF7B6FFFFF7CEFEC6
:1005E0002AE000250BE0E8B2FFF76EFE4FF47A70C8
:1005F000FFF7CCFFFE211148FFF74AFE6D1C0A2DC4
:10060000F1DB40F6B830FFF7C1FF092400250CE00C
:10061000E0B2FFF79BFE641E4FF47A70FFF7B6FF5F
:10062000FE210648FFF734FE6D1C0A2DF0DB40F674
:10063000B830FFF7ABFF00BFD3E700000008014070
:100640008000F20048006000320024000400F00046
:1006500000002000740600080000002018000000C0
:10066000280500088C06000818000020000400007F
:100670003805000800A24A04000000000000000045
:0C06800001020304060708090000000046
:04000005080000ED02
:00000001FF
