:020000040800F2
:10000000200400200501000823050008330400082F
:10001000370400084D010008090A0008000000002C
:10002000000000000000000000000000650800085B
:10003000D901000800000000A9050008A509000872
:100040001F0100081F0100081F0100081F01000810
:100050001F0100081F0100081F0100081F01000800
:100060001F0100081F0100081F0100081F010008F0
:100070001F0100081F0100081F0100081F010008E0
:100080001F0100081F0100081F0100081F010008D0
:100090001F0100081F0100081F0100081F010008C0
:1000A0001F0100081F0100081F0100081F010008B0
:1000B0001F0100081F0100081F0100081F010008A0
:1000C0001F0100081F0100081F0100081F01000890
:1000D0001F0100081F0100081F0100081F01000880
:1000E000DD0100081F0100081F010008DFF810D023
:1000F00000F01AF800480047BD0A0008AFF300807E
:10010000200400200648804706480047FEE7FEE737
:10011000FEE7FEE7FEE7FEE7FEE7FEE7FEE7FEE7B7
:10012000A9090008ED000008064C074D06E0E0684C
:1001300040F0010394E8070098471034AC42F6D32E
:10014000FFF7D8FF3C0B00085C0B000800BFFEE780
:100150000148008870470000180000201FB50121E9
:10016000082000F06FFB0121084600F06BFB4820DF
:100170008DF80F004FF48040ADF80C0002208DF890
:100180000E0003A9134800F0C5F80E21012000F06D
:10019000A1F84FF48040019000208DF808000C2059
:1001A0008DF8090001208DF80A0001A800F048F838
:1001B0004FF4A06000F0EEF928208DF80000012037
:1001C0008DF801008DF802008DF80300684600F0FC
:1001D000A9F91FBD000C01407047000010B54FF495
:1001E000804000F019F801280CD107480088401C15
:1001F000054908804FF4967000F03AFC4FF48040B7
:1002000000F004F810BD000018000020014908604B
:100210007047000014040140014600200022074BF3
:100220001B6803EA0102054B14331B680B4013B132
:100230000AB1012000E000207047000000040140E6
:10024000002123498279002A3AD00A4612680368BD
:100250009A430B461A600A1D126803689A430B1DE5
:100260001A60027911440A6803681A430A60184A3E
:100270000832126803689A43154B08331A601A1D36
:10028000126803689A43124B0C331A604279102AA1
:100290000ED11A1F126803681A430D4B08331A60F7
:1002A0001A1D126803681A43094B0C331A600DE0DB
:1002B0000749427911440A6803681A430A6005E055
:1002C000027911440A6803689A430A607047000083
:1002D0000004014030B500228B071C0F0F2303FAE6
:1002E00004F20B4B8C1053F824309343084C8D10C0
:1002F00044F8253023468C1053F824308C07240F03
:1003000000FA04F42343024C8D1044F8253030BD2C
:10031000080001402DE9F04102460025002600209A
:1003200000230024002791F803C00CF00F0591F87A
:1003300003C00CF0100CBCF1000F03D091F802C008
:100340004CEA050591F800C0BCF1000F31D01468EB
:1003500000202BE04FF0010C0CFA00F3B1F800C0C4
:100360000CEA03069E4220D183004FF00F0C0CFADA
:1003700003F7BC4305FA03FC4CEA040491F803C0FC
:10038000BCF1280F06D14FF0010C0CFA00FCC2F8AA
:1003900014C00AE091F803C0BCF1480F05D14FF03A
:1003A000010C0CFA00FCC2F810C0401C0828D1D384
:1003B0001460B1F800C0BCF1FF0F34DD54680020B8
:1003C0002EE000F1080C4FF0010808FA0CF3B1F828
:1003D00000C00CEA03069E4221D183004FF00F0CAF
:1003E0000CFA03F7BC4305FA03FC4CEA040491F849
:1003F00003C0BCF1280F05D100F1080C08FA0CF875
:10040000C2F8148091F803C0BCF1480F07D100F185
:10041000080C4FF0010808FA0CF8C2F81080401CD4
:100420000828CED35460BDE8F08141617047016176
:10043000704700BFFEE700BFFEE72DE9F04106462A
:100440000F461446002E29D0012C04D0022C0DD0CA
:10045000032C21D115E0012505E03946284600F09E
:10046000FDF8681CC5B2052DF7DB16E0012505E097
:100470003946284600F09AF8681CC5B2052DF7DB0E
:100480000BE0012505E03946284600F03FF9681CDD
:10049000C5B2092DF7DB00E000BF29E0012C04D034
:1004A000022C0DD0032C21D115E0042505E039469E
:1004B000284600F0D3F8681EC5B2002DF7DC16E020
:1004C000042505E03946284600F070F8681EC5B2DC
:1004D000002DF7DC0BE0082505E03946284600F042
:1004E00015F9681EC5B2002DF7DC00E000BF00BFA3
:1004F000BDE8F0812DE9F04106460F4690461C46C6
:10050000002506E0424639463046FFF796FF681C54
:1005100085B2A0012D2190FBF1F0A842F2DCBDE8EC
:10052000F081704770B5002100230F22C47804B316
:10053000154C246804F4E064C4F5E064210AC1F1B8
:100540000403CA40447804FA03F184781440214338
:1005500009010E4C0678A155047804F01F0501240A
:10056000AC4005786D11AD0005F1E025C5F80041FE
:1005700009E0047804F01F050124AC40044D06781E
:10058000761145F8264070BD0CED00E000E400E077
:1005900080E100E002490143024A11607047000017
:1005A0000000FA050CED00E07047000070B505464C
:1005B0000C46012D06D0022D15D0032D24D0042D7C
:1005C00044D132E002212448FFF72FFF04212248C2
:1005D000FFF72DFF08212048FFF729FF10211E48B3
:1005E000FFF723FF32E002211B48FFF71EFF042123
:1005F0001948FFF71AFF08211748FFF718FF1021C5
:100600001548FFF714FF21E002211348FFF70FFF01
:1006100004211148FFF709FF08210F48FFF705FFE4
:1006200010210D48FFF703FF10E002210A48FFF7F1
:10063000FEFE04210848FFF7FAFE08210648FFF7EE
:10064000F4FE10210448FFF7F0FE00BF00BF204673
:1006500000F00EFA70BD00000008014070B50546BC
:100660000C46012D06D0022D15D0032D24D0042DCB
:1006700044D132E002212448FFF7D9FE0421224868
:10068000FFF7D3FE08212048FFF7CFFE10211E48B8
:10069000FFF7CBFE32E002211B48FFF7C6FE042124
:1006A0001948FFF7C4FE08211748FFF7BEFE1021C6
:1006B0001548FFF7BAFE21E002211348FFF7B5FE07
:1006C00004211148FFF7B1FE08210F48FFF7AFFEE4
:1006D00010210D48FFF7A9FE10E002210A48FFF79C
:1006E000A4FE04210848FFF7A0FE08210648FFF7F2
:1006F0009CFE10210448FFF79AFE00BF00BF204671
:1007000000F0B6F970BD00000008014070B5044665
:100710000D46092C16D2DFE804F08D05162738495E
:100720005A6B7C0002214648FFF77FFE04214448B3
:10073000FFF77DFE08214248FFF779FE102140486F
:10074000FFF775FE76E002213D48FFF76EFE0421BB
:100750003B48FFF76AFE08213948FFF768FE102181
:100760003748FFF764FE65E002213548FFF75FFE7A
:1007700004213348FFF759FE08213148FFF757FE9F
:1007800010212F48FFF753FE54E002212C48FFF7B9
:100790004EFE04212A48FFF748FE08212848FFF7AB
:1007A00044FE10212648FFF742FE43E00221244880
:1007B000FFF73DFE04212248FFF739FE08212048BB
:1007C000FFF733FE10211E48FFF731FE32E0022111
:1007D0001B48FFF72CFE04211948FFF728FE0821CB
:1007E0001748FFF722FE10211548FFF71EFE21E0F3
:1007F00002211348FFF71BFE04211148FFF717FEE3
:1008000008210F48FFF713FE10210D48FFF70DFEDA
:1008100010E002210A48FFF708FE04210848FFF70C
:1008200006FE08210648FFF702FE10210448FFF7E4
:10083000FCFD00BF00BF284600F01AF970BD0000A3
:100840000008014029B1064A92690243044B9A61AB
:1008500004E0034A92698243014B9A6170470000A9
:1008600000100240704710B500F002F810BD000003
:100870000CB50020019000903348006840F48030AF
:100880003149086000BF3048006800F40030009033
:100890000198401C0190009818B90198B0F5A06F1C
:1008A000F1D12948006800F4003010B10120009017
:1008B00001E0002000900098012843D123480068FF
:1008C00040F01000214908600846006820F0070049
:1008D00008600846006840F0020008601A48406856
:1008E000194948600846406848600846406840F436
:1008F000806048600846406820F47C1048600846E4
:10090000406840F4E81048600846006840F0807095
:10091000086000BF0C48006800F000700028F9D0A3
:100920000948406820F003000749486008464068CD
:1009300040F00200486000BF0348406800F00C002F
:100940000828F9D10CBD0000001002400020024030
:1009500008B501210420FFF775FF10208DF8030072
:1009600003208DF802001E20ADF800006946024801
:10097000FFF7D0FC08BD000000080140042808D1A2
:100980004FF0E021096941F004014FF0E0221161CC
:1009900007E04FF0E021096921F004014FF0E02267
:1009A000116170477047000010B51348006840F0AF
:1009B00001001149086008464068104908400E4986
:1009C0004860084600680E4908400B490860084620
:1009D000006820F4802008600846406820F4FE008B
:1009E00048604FF41F008860FFF73DFF4FF0006044
:1009F0000449086010BD0000001002400000FFF82C
:100A0000FFFFF6FE08ED00E000BFFEE702E008C8C9
:100A1000121F08C1002AFAD170477047002001E078
:100A200001C1121F002AFBD17047000010B56FF002
:100A30000400FFF7A3FF0A4800680A49B0FBF1F081
:100A4000094908700846007800EB4001C1EBC0106E
:100A50004FF6FF7101EAC0000449088010BD000094
:100A60000000002000127A00140000201600002070
:100A70000146114A12884A434FF0E0235A6100228E
:100A80009A611A46126942F001021A6100BF4FF0E2
:100A9000E022106900F001021AB100F48032002A4D
:100AA000F5D04FF0E022126922F001024FF0E0236E
:100AB0001A6100229A61704716000020FFF7B6FF06
:100AC000FFF74CFBFFF744FF37E0FFF741FB04461D
:100AD000052094FBF0F100FB1140012804D1012214
:100AE00004211046FFF7A9FC052094FBF0F100FB60
:100AF0001140022804D1022204210020FFF79DFCAE
:100B0000052094FBF0F100FB1140032804D10322DF
:100B100002210120FFF791FC052094FBF0F100FB7E
:100B20001140042809D1B423012204210020FFF739
:100B3000E1FC4CF25030FFF79BFFC6E75C0B00086E
:100B4000000000201C0000000C0A0008780B0008C0
:100B50001C000020040400001C0A000800A24A0433
:100B6000000000000000000001020304060708095D
:080B700000000000000000007D
:04000005080000ED02
:00000001FF
