:020000040800F2
:100000006804002005010008B50A0008390A000844
:10001000B10A000827070008491000080000000086
:10002000000000000000000000000000910E000829
:100030001909000800000000B30D0008A50F000812
:100040001F0100081F0100081F0100081F01000810
:100050001F0100081F0100081F0100081F01000800
:100060001F0100081F0100081F0100081F010008F0
:100070001F0100081F0100081F0100081F010008E0
:100080001F0100081F0100081F0100081F010008D0
:100090001F0100081F0100081F0100081F010008C0
:1000A0001F0100081F0100081F0100081F010008B0
:1000B000091000081F0100081F0100081F010008A7
:1000C0001F0100081F0100081F0100081F01000890
:1000D0001F0100081F0100081F0100081F01000880
:1000E0001F0100081F0100081F010008DFF810D0E1
:1000F00000F0AEF900480047B1110008AFF30080EE
:10010000680400200648804706480047FEE7FEE7EF
:10011000FEE7FEE7FEE7FEE7FEE7FEE7FEE7FEE7B7
:10012000A90F0008ED00000830B480EA010202F0D7
:10013000004530F0004221F0004013D090B1C30DD3
:10014000D40DC2F31601C0F31600E41A41F4000105
:1001500040F400027D34914201D3641C00E0490068
:10016000002C02DA30BC002070474FF4000000235E
:10017000914201D3891A034340084FEA4101F7D164
:1001800051B1914202D14FF0004105E002D24FF04F
:10019000010101E06FF0010103EBC450284430BCC1
:1001A00000F0C2B82DE9FE4F81EA030404F00044D8
:1001B00021F0004100944FF0000B23F0004350EA7F
:1001C00001045ED052EA03045BD0C3F30A54C1F3C6
:1001D0000A552C44A4F2F3340194A0FB0254C1F359
:1001E000130141F48011C3F3130343F4801301FBA3
:1001F000024400FB034E840A970A44EA815447EA0A
:100200008357A4FB076802958D0A05FB07854FEA13
:10021000932C04FB0C542705029D4FEA065847EA2D
:100220001637B5EB08056EEB070C870E920E47EA02
:10023000811742EA8312A7FB0201B6EB0B0164EBC4
:1002400000042B0D43EA0C335E1844EB1C50DA46D5
:100250005146E7FB0201C5F313044FEA0B3343EAAF
:1002600014534FEA0432019C43EA0603A4F10C0440
:100270000294009CCDE900B400F09CF803B0BDE806
:10028000F08F00200146F9E796230022114600F086
:1002900054B8C1F30A5210B5C1F3130140F2FF3351
:1002A00041F480119A4201DA002010BD40F233433C
:1002B0009A42A2F2334203DC524200F025F810BD0C
:1002C000904010BD00F0004230F000400AD0C10D57
:1002D00001F56071C0F3160042EA0151C2084007FF
:1002E00011437047002001467047202A04DB203A62
:1002F00000FA02F1002070479140C2F1200320FA79
:1003000003F3194390407047202A04DB203A21FA76
:1003100002F00021704721FA02F3D040C2F120021E
:1003200091400843194670470029A8BF7047401CF8
:10033000490008BF20F00100704710B4B0FA80FCFB
:1003400000FA0CF050EA010404BF10BC704749B138
:10035000CCF1200421FA04F411FA0CF118BF0121A8
:1003600021430843A3EB0C01CB1D4FEA00614FEA88
:10037000102042BF002010BC704700EBC350104457
:100380000029A4BF10BC7047401C490008BF20F0E2
:10039000010010BC704710B5141E73F1000408DA98
:1003A000401C41F1000192185B411A4301D120F039
:1003B000010010BD2DE9F04D92469B4611B1B1FAF6
:1003C00081F202E0B0FA80F220329046FFF78DFF12
:1003D00004460F4640EA0A0041EA0B0153465A46DA
:1003E000084313D0114653EA010019D0C8F1400266
:1003F0005046FFF789FF05460E465046594642468D
:10040000FFF773FF084305D0012004E0204639467A
:10041000BDE8F08D0020054346EAE0762C433743E3
:100420000A986305E40AA0EB08000022FD0A44EAEA
:1004300047540A3002D500200146E9E701051019AA
:100440006941DDE9084500196941BDE8F04DA2E7C1
:10045000064C074D06E0E06840F0010394E8070011
:1004600098471034AC42F6D3FFF744FE4C1B00080B
:100470006C1B000821B1826842F00102826003E037
:10048000826822F001028260704721B1826842F4E2
:100490008072826003E0826822F48072826070471A
:1004A00008B501214FF4017000F0A0FC0720ADF861
:1004B000000000208DF803006946024800F02DFA84
:1004C00008BD000000080140014600208A6802F0D3
:1004D00004020AB1012000E000207047014600201C
:1004E0008A6802F008020AB1012000E0002070478B
:1004F00030B502460020002350680F4C20400D7993
:100500000C6844EA05242043506090680B4C20405E
:10051000D1E902542C434D7944EA450420439060CC
:10052000D06A20F470000C7C641EE4B2234340EADD
:100530000350D06230BD0000FFFEF0FFFDF7F1FF79
:1005400000B591B00121084600F040FC01214802AD
:1005500000F04CFC384800F003F938480690384861
:100560000790002008901E20099000200A9080200B
:100570000B9040000C9080000D9000200E904FF4E6
:1005800000500F900020109006A92B4800F0A4F90D
:100590000121294800F0D8F80020019001208DF8B1
:1005A00008008DF809004FF46020039000200490AB
:1005B00003208DF8140001A920484C38FFF798FF5C
:1005C0004FF4004000F0F6FB0723012200211B48F6
:1005D0004C3800F037F807230222012117484C3825
:1005E00000F030F807230322022114484C3800F0B1
:1005F00029F8012111484C38FFF747FF01210F4826
:100600004C38FFF737FF0D484C3800F077F800BF43
:100610000A484C38FFF762FF0028F9D107484C38E8
:1006200000F07CF800BF05484C38FFF74DFF00286C
:10063000F9D111B000BD0000080002404C24014077
:100640002C000020F0B504460D4600200021092DA5
:1006500011DDE068A5F10A0606EB4607072606FA53
:1006600007F18843A5F10A0606EB460603FA06F1F0
:100670000843E0600CE0206905EB4507072606FA11
:1006800007F1884305EB450603FA06F108432061AC
:10069000072A0FDA606B561E06EB86071F2606FA3E
:1006A00007F18843561E06EB860605FA06F1084355
:1006B000606322E00D2A0FDA206BD61F06EB860757
:1006C0001F2606FA07F18843D61F06EB860605FAB1
:1006D00006F10843206310E0E06AA2F10D0606EB84
:1006E00086071F2606FA07F18843A2F10D0606EBDE
:1006F000860605FA06F10843E062F0BD816841F024
:1007000008018160704721B1826842F4A0028260D2
:1007100003E0826822F4A00282607047816841F0A1
:1007200004018160704700BFFEE7000000F08051C7
:1007300011B10349086001E00249486070470000B8
:10074000040402400000024021B1026842F00102AC
:10075000026004E002684FF6FE731A4002607047C0
:1007600001684FF6FE721140016000210160416096
:100770008160C1604B49884208D14A4908394968BB
:1007800041F00F01474A083A51608AE04549143167
:10079000884208D143490839496841F0F001414A8B
:1007A000083A51607DE03F492831884208D13D49EF
:1007B0000839496841F470613A4A083A516070E07A
:1007C00038493C31884208D136490839496841F4F2
:1007D0007041344A083A516063E0324950318842EE
:1007E00008D130490839496841F470212D4A083A46
:1007F000516056E02B496431884208D129490839B3
:10080000496841F47001274A083A516049E0254996
:100810007831884208D123490839496841F070612C
:10082000204A083A51603CE01F49884206D1011F26
:10083000096841F00F01021F116032E01A491431BA
:10084000884208D11849091F096841F0F001164A89
:10085000121F116025E014492831884208D112493D
:10086000091F096841F470610F4A121F116018E0F6
:100870000D493C31884208D10B49091F096841F4F0
:100880007041094A121F11600BE00749503188423C
:1008900007D10549091F096841F47021024A121F56
:1008A0001160704708000240080402400146002021
:1008B000002201F0805313B1054B1A6801E0054B8B
:1008C0001A6802EA01030BB1012000E00020704722
:1008D000000402400000024010B50022026847F602
:1008E000F0739A430C6A8B6823430C6923434C6969
:1008F00023438C692343CC6923434C6A23438C6A8A
:1009000023431A430260CB6843600B6883604B68E3
:10091000C36010BD4160704770472DE9F041024649
:1009200000250026002000230024002791F803C0A2
:100930000CF00F0591F803C00CF0100CBCF1000F87
:1009400003D091F802C04CEA050591F800C0BCF153
:10095000000F31D0146800202BE04FF0010C0CFA8E
:1009600000F3B1F800C00CEA03069E4220D18300D8
:100970004FF00F0C0CFA03F7BC4305FA03FC4CEAEA
:10098000040491F803C0BCF1280F06D14FF0010C0C
:100990000CFA00FCC2F814C00AE091F803C0BCF1E4
:1009A000480F05D14FF0010C0CFA00FCC2F810C042
:1009B000401C0828D1D31460B1F800C0BCF1FF0F6F
:1009C00034DD546800202EE000F1080C4FF00108DF
:1009D00008FA0CF3B1F800C00CEA03069E4221D1DC
:1009E00083004FF00F0C0CFA03F7BC4305FA03FC2D
:1009F0004CEA040491F803C0BCF1280F05D100F1C2
:100A0000080C08FA0CF8C2F8148091F803C0BCF185
:100A1000480F07D100F1080C4FF0010808FA0CF854
:100A2000C2F81080401C0828CED35460BDE8F08185
:100A3000416170470161704700BFFEE710B54FF498
:100A400080710948FFF7F6FF4FF400710648FFF781
:100A5000F1FF4FF400710448FFF7EAFF4FF4807193
:100A60000148FFF7E5FF10BD000C014010B54FF441
:100A700080710748FFF7DEFF4FF400710448FFF76D
:100A8000D7FF4FF400710248FFF7D4FF10BD0000FC
:100A9000000C014010B54FF480710448FFF7CAFF05
:100AA0004FF480710148FFF7C3FF10BD000C0140F7
:100AB00000BFFEE7704770B50646002418E004F159
:100AC000B000002100F069F90021084600F065F946
:100AD0000021102000F061F9002505E001213046D9
:100AE00000F05BF9681CC5B2802DF7DB601CC4B256
:100AF000082CE4DB70BD000008B50121082000F0DF
:100B000075F94FF44070ADF8000010208DF8030027
:100B100003208DF8020069463B48FFF7FEFE4FF4C4
:100B200040713948FFF786FFC82000F01BFB002109
:100B3000AE2000F032F90021084600F02EF9002125
:100B4000102000F02AF90021402000F026F90021B1
:100B5000B02000F022F90021812000F01EF90021D0
:100B6000FF2000F01AF90021A12000F016F9002161
:100B7000A62000F012F90021A82000F00EF90021B3
:100B80003F2000F00AF90021C82000F006F90021FA
:100B9000D32000F002F90021084600F0FEF8002101
:100BA000D52000F0FAF80021802000F0F6F80021AE
:100BB000D82000F0F2F80021052000F0EEF8002126
:100BC000D92000F0EAF80021F12000F0E6F8002139
:100BD000DA2000F0E2F80021122000F0DEF8002117
:100BE000DB2000F0DAF80021302000F0D6F80021F8
:100BF0008D2000F0D2F80021142000F0CEF8002162
:100C0000AF2000F0CAF808BD000C014070B50446E2
:100C10000D4605F1B000002100F0BFF8102141EAB7
:100C20001410002100F0B9F804F00F00002100F0CA
:100C3000B4F870BD2DE9F04707460E469046994638
:100C400000250024A8F12000C5B27F2F02DD002777
:100C5000B01CC6B2B9F1100F24D131463846FFF7A7
:100C6000D5FF002408E004EB0511194A505C01216E
:100C700000F093F8601CC4B2082CF4DB701CC1B205
:100C80003846FFF7C3FF002409E004EB05110831E3
:100C90000F4A505C012100F080F8601CC4B2082C9F
:100CA000F3DB12E031463846FFF7B0FF00240AE0DC
:100CB00005EB4501074A02EB4101085D012100F007
:100CC0006CF8601CC4B2062CF2DBBDE8F0870000B3
:100CD0005A150008321300082DE9FF5F07469146B8
:100CE0001E460E9D4FF0000A002435E0301B401ECA
:100CF000C1B20A2000F012FBB9FBF0F00A21B0FBF0
:100D0000F1F201FB1208BAF1000F14D1701EA042DB
:100D100011DDB8F1000F0CD1AB4605EBDB714910CA
:100D200001FB0471C8B22B4620220199FFF782FF14
:100D300010E04FF0010AAB4605EBDB71491001FBF7
:100D40000471C8B208F13001CAB22B460199FFF70D
:100D500071FF00BF601CC4B2B442C7DBBDE8FF9F97
:100D60002DE9F04104460F461546984600260FE04F
:100D7000AA5D434639462046FFF75CFF04F10800B0
:100D8000C4B2782C02DD0024B81CC7B2701CC6B2F5
:100D9000A85D0028ECD1BDE8F08170B504460D4691
:100DA0001DB1E0B200F096F902E0E0B200F07CF98B
:100DB00070BD704701460020034A506820F440404F
:100DC00008435060704700000010024029B1064AF5
:100DD00052690243044B5A6104E0034A5269824358
:100DE000014B5A61704700000010024029B1064AC9
:100DF00092690243044B9A6104E0034A9269824378
:100E0000014B9A61704700000010024070B5044623
:100E100000261E211A48FFF77DFD01211848FFF723
:100E200093FC01211748FFF76EFC00BF0220FFF77B
:100E30003DFD0128FAD10220FFF778FC002110487F
:100E4000FFF782FC00210F48FFF75DFC002509E059
:100E500005EB45000C4901EB400030F81400064456
:100E6000681CC5B20A2DF3DB0A20B6FBF0F0074977
:100E700021F814000026084630F8140070BD000068
:100E800008000240002401402C000020180000202F
:100E9000704710B500F002F810BD00000CB500203E
:100EA000019000903348006840F480303149086078
:100EB00000BF3048006800F4003000900198401CEA
:100EC0000190009818B90198B0F5A06FF1D12948A8
:100ED000006800F4003010B10120009001E0002013
:100EE00000900098012843D12348006840F010008A
:100EF000214908600846006820F00700086008469D
:100F0000006840F0020008601A48406819494860CB
:100F10000846406848600846406840F48060486081
:100F20000846406820F47C1048600846406840F459
:100F3000E81048600846006840F08070086000BF14
:100F40000C48006800F000700028F9D0094840689B
:100F500020F00300074948600846406840F002005E
:100F6000486000BF0348406800F00C000828F9D131
:100F70000CBD00000010024000200240042808D1EF
:100F80004FF0E021096941F004014FF0E0221161C6
:100F900007E04FF0E021096921F004014FF0E02261
:100FA000116170477047000010B51348006840F0A9
:100FB00001001149086008464068104908400E4980
:100FC0004860084600680E4908400B49086008461A
:100FD000006820F4802008600846406820F4FE0085
:100FE00048604FF41F008860FFF753FF4FF0006028
:100FF0000449086010BD0000001002400000FFF826
:10100000FFFFF6FE08ED00E010B50121880700F0B3
:101010000AF8012803D10121800700F001F810BD72
:10102000CA430282704730B50246002000230024E4
:10103000158A05EA0103958905EA010413B10CB18B
:10104000012000E0002030BD00BFFEE72DE9F041A7
:1010500005462C464FF480711248FFF7E9FC002644
:101060001CE0274607F08007802F04D1B9000D4807
:10107000FFF7E0FC04E04FF400710A48FFF7D8FCEA
:101080006006040E4FF480710648FFF7D3FC4FF45E
:1010900080710448FFF7CCFC701CC6B2082EE0DB60
:1010A000BDE8F081000C014010B50446FFF7C6FC16
:1010B0007820FFF7CBFFFFF7EDFC0020FFF7C6FF1E
:1010C000FFF7E8FC2046FFF7C1FFFFF7E3FCFFF75F
:1010D000CDFC10BD10B50446FFF7B0FC7820FFF73B
:1010E000B5FFFFF7D7FC4020FFF7B0FFFFF7D2FCBA
:1010F0002046FFF7ABFFFFF7CDFCFFF7B7FC10BDB5
:1011000002E008C8121F08C1002AFAD170477047D0
:10111000002001E001C1121F002AFBD1704700002E
:1011200010B56FF00400FFF729FF0A4800680A496C
:10113000B0FBF1F0094908700846007800EB400167
:10114000C1EBC0104FF6FF7101EAC00004490880EE
:1011500010BD00000000002000127A0014000020E2
:10116000160000200146114A12884A434FF0E0233E
:101170005A6100229A611A46126942F001021A610C
:1011800000BF4FF0E022106900F001021AB100F434
:101190008032002AF5D04FF0E022126922F00102DD
:1011A0004FF0E0231A6100229A6170471600002078
:1011B0001CB5FFF7B5FFFFF79FFCFFF771F9FFF7CD
:1011C000BFF90020FFF777FC102346A2022101207F
:1011D000FFF7C6FD102346A204210120FFF7C0FD42
:1011E000102346A206210120FFF7BAFD79E0002472
:1011F00074E02046FFF70AFE0546FFF745F842492E
:1012000041F82400022000EB44001FFA80F951F855
:1012100024004FF08B41FEF787FF0190FFF752F853
:1012200007464FF06632394BFEF7BCFF0546FFF725
:1012300030F88346102009F0FF0101235A46009040
:101240004820FFF749FD09F0FF01102330A252208A
:10125000FFF786FD2C4951F824004FF08B41FEF733
:1012600063FF8346FFF72EF84FF06632274BCDE938
:101270000001FEF797FF07460022264BFEF792FF7C
:101280000546FFF706F880B2642190FBF1F201FBFE
:1012900012001FFA80FABAF10A0F10DA102009F0D2
:1012A000FF010223524600905A20FFF715FD09F076
:1012B000FF01102318A25920FFF752FD08E010206B
:1012C00009F0FF010223524600905A20FFF704FD67
:1012D0004FF49670FFF746FF601C84B2032C88DB46
:1012E00000BF84E7566F6C74616765313A00000097
:1012F000566F6C74616765323A000000566F6C740B
:10130000616765333A0000002000002066660A40ED
:101310002E000000000059403000000010B50246C9
:10132000012000E050430B1EA1F10104E1B2F9D10C
:1013300010BD0000000000000000002F00000000B1
:101340000700070000147F147F1400242A7F2A124C
:10135000006264081323003649552250000005033B
:10136000000000001C224100000041221C0000146B
:10137000083E08140008083E0808000000A06000AD
:10138000000808080808000060600000002010083D
:101390000402003E5149453E0000427F40000042A9
:1013A00061514946002141454B31001814127F100C
:1013B000002745454539003C4A494930000171093B
:1013C000050300364949493600064949291E0000EF
:1013D0003636000000005636000000081422410096
:1013E00000141414141400004122140800020151C6
:1013F000090600324959513E007C1211127C007FCF
:1014000049494936003E41414122007F4141221C69
:10141000007F49494941007F09090901003E4149CE
:10142000497A007F0808087F0000417F41000020C2
:1014300040413F01007F08142241007F404040406E
:10144000007F020C027F007F0408107F003E4141B4
:10145000413E007F09090906003E4151215E007F9F
:10146000091929460046494949310001017F010116
:10147000003F4040403F001F2040201F003F4038B9
:10148000403F0063140814630007087008070061F8
:101490005149454300007F41410000552A552A55D6
:1014A000000041417F00000402010204004040406E
:1014B0004040000001020400002054545478007F92
:1014C0004844443800384444442000384444487F69
:1014D00000385454541800087E0901020018A4A4CE
:1014E000A47C007F080404780000447D4000004094
:1014F00080847D00007F102844000000417F400070
:10150000007C04180478007C080404780038444403
:10151000443800FC242424180018242418FC007CDF
:101520000804040800485454542000043F44402058
:10153000003C4040207C001C2040201C003C4030EF
:10154000403C004428102844001CA0A0A07C00447B
:1015500064544C44141414141414000000000000CB
:1015600000000000000000000000000000F8000083
:101570000000000000333000000000100C06100CCA
:101580000600000000000000000040C07840C07865
:101590004000043F04043F040400007088FC08304D
:1015A0000000001820FF211E0000F008F000E018E5
:1015B000000000211C031E211E0000F0088870009E
:1015C00000001E2123241927211010160E000000F0
:1015D00000000000000000000000000000E018040F
:1015E0000200000000071820400000020418E0007C
:1015F00000000040201807000000404080F08040BC
:1016000040000202010F01020200000000F0000091
:1016100000000101011F01010100000000000000A5
:10162000000080B07000000000000000000000001A
:1016300000000001010101010101000000000000A3
:10164000000000303000000000000000000080605A
:101650001804006018060100000000E010080810DF
:10166000E000000F102020100F00001010F8000004
:1016700000000020203F202000000070080808889B
:10168000700000302824222130000030088888486B
:1016900030000018202020110E000000C02010F89B
:1016A000000000070424243F240000F8088888086C
:1016B00008000019212020110E0000E01088881871
:1016C0000000000F112020110E0000380808C83853
:1016D00008000000003F0000000000708808088833
:1016E0007000001C222121221C0000E010080810BC
:1016F000E0000000312222110F00000000C0C000F5
:1017000000000000003030000000000000800000F9
:1017100000000000806000000000000080402010F9
:1017200008000001020408102000404040404040F2
:101730004000040404040404040000081020408055
:10174000000000201008040201000070480808088A
:10175000F0000000003036010000C030C828E8105A
:10176000E0000718272423140B000000C038E00015
:101770000000203C23020227382008F8888888705F
:101780000000203F202020110E00C030080808086B
:101790003800071820202010080008F80808081052
:1017A000E000203F202020100F0008F88888E8087B
:1017B0001000203F20202320180008F88888E8081F
:1017C0001000203F200003000000C0300808083847
:1017D000000007182020221E020008F80800000858
:1017E000F808203F210101213F20000808F80808DF
:1017F00000000020203F2020000000000808F8081A
:101800000800C08080807F00000008F888C0281889
:101810000800203F20012638200008F808000000BA
:101820000000203F20202020300008F8F800F8F8C1
:101830000800203F003F003F200008F830C00008AB
:10184000F808203F200007183F00E01008080810A3
:10185000E0000F10202020100F0008F808080808EA
:10186000F000203F210101010000E01008080810ED
:10187000E0000F18242438504F0008F88888888822
:101880007000203F2000030C3020007088080808FA
:1018900038000038202121221C00180808F8080808
:1018A00018000000203F2000000008F80800000891
:1018B000F808001F202020201F000878880000C89A
:1018C0003808000007380E010000F80800F800088A
:1018D000F800033C0700073C030008186880806894
:1018E000180820302C03032C30200838C800C838D2
:1018F00008000000203F2000000010080808C83839
:1019000008002038262120201800000000FE0202D6
:1019100002000000007F40404000000C30C000008A
:101920000000000000010638C00000020202FE00B4
:101930000000004040407F0000000000040202025E
:101940000400000000000000000000000000000093
:10195000000080808080808080800002020400007F
:101960000000000000000000000000008080808077
:1019700000000019242222223F2008F80080800065
:101980000000003F112020110E0000000080808028
:101990000000000E1120202011000000008080882F
:1019A000F800000E112020103F2000008080808071
:1019B0000000001F222222221300008080F088886D
:1019C00088180020203F20200000000080808080B8
:1019D0008000006B94949493600008F800808080ED
:1019E0000000203F210000203F2000809898000048
:1019F00000000020203F2020000000000080989878
:101A0000000000C08080807F000008F80000808017
:101A10008000203F24022D302000000808F800003C
:101A200000000020203F20200000808080808080F7
:101A30008000203F20003F20003F80800080808089
:101A40000000203F210000203F2000008080808097
:101A50000000001F202020201F00808000808000C8
:101A6000000080FFA12020110E0000000080808077
:101A70008000000E112020A0FF80808080008080E8
:101A8000800020203F212000010000008080808015
:101A900080000033242424241900008080E080800A
:101AA00000000000001F2020000080800000008057
:101AB0008000001F202020103F20808080000080B8
:101AC000808000010E3008060100808000800080C8
:101AD00080800F300C030C300F000080800080806D
:101AE00080000020312E0E31200080808000008098
:101AF000808080818E701806010000808080808048
:101B000080000021302C2221300000000000807C69
:101B1000020200000000003F404000000000FF0003
:101B2000000000000000FF0000000002027C8000B6
:101B300000000040403F00000000000601010202DA
:101B40000404000000000000000000006C1B0008FE
:101B50000000002020000000001100088C1B00087D
:101B600020000020480400001011000800A24A04D0
:101B7000000000000000000001020304060708093D
:0C1B800000000000000000000000000059
:04000005080000ED02
:00000001FF
