:020000040800F2
:100000001804002005010008BD0400084104000890
:10001000B90400084D01000855090008000000005F
:10002000000000000000000000000000DD070008E4
:100030002103000800000000BB070008F1080008C9
:100040001F0100081F0100081F0100081F01000810
:100050001F0100081F0100081F0100081F01000800
:100060001F0100081F0100081F0100081F010008F0
:100070001F0100081F0100081F0100081F010008E0
:100080001F0100081F0100081F0100081F010008D0
:100090001F0100081F0100081F0100081F010008C0
:1000A0001F0100081F0100081F0100081F010008B0
:1000B0001F0100081F0100081F0100081F010008A0
:1000C0001F0100081F0100081F0100081F01000890
:1000D0001F0100081F0100081F0100081F01000880
:1000E0001F0100081F0100081F010008DFF810D0E1
:1000F00000F01AF800480047090B0008AFF3008031
:10010000180400200648804706480047FEE7FEE73F
:10011000FEE7FEE7FEE7FEE7FEE7FEE7FEE7FEE7B7
:10012000F5080008ED000008064C074D06E0E06801
:1001300040F0010394E8070098471034AC42F6D32E
:10014000FFF7D8FFF81300081814000800BFFEE7F7
:1001500010B5002400F024F804E0601CC4B20120B3
:1001600000F0ACFC0D48006808B1642CF5DB642C91
:1001700001DB012010BD002404E0601CC4B201209A
:1001800000F09CFC0548006808B9642CF5DB642C81
:1001900001DB0120EEE70020ECE700000401214232
:1001A00008B50220ADF8000048208DF8030069462C
:1001B000014800F0B6F808BD0008014008B502206B
:1001C000ADF8000010208DF8030003208DF8020028
:1001D0006946024800F0A5F808BD0000000801408B
:1001E00008B50121042000F0E9FA0220ADF8000072
:1001F00010208DF8030003208DF8020069460648A0
:1002000000F08FF80221044800F018F900F072F8AD
:10021000FFF79EFF08BD00000008014010B5002454
:1002200004E0601CC4B2012000F048FC0D480068E6
:1002300008B1642CF5DB002404E0601CC4B201208A
:1002400000F03CFC0748006808B9642CF5DB282066
:1002500000F034FC0348006808B1012010BD002004
:10026000FCE700000401214270B50024002506E0EF
:100270006006040EFFF7D2FF0443681CC5B2082DC8
:10028000F6DB204670BD2DE9FC4105460E461746BB
:10029000984600F02FF8FFF75BFF30BB002405E025
:1002A000FFF7E2FF0DF80400601CC4B2052CF7DB79
:1002B0009DF800009DF8011008449DF802100844C4
:1002C0009DF8031008449DF80410884210D19DF851
:1002D000000038709DF8010088F800009DF80200C9
:1002E00028709DF80300307002E00120BDE8FC8119
:1002F0000020FBE710B5FFF761FF0020064908600A
:10030000142000F0B5FB01200449C1F884011E202F
:1003100000F0D4FB10BD0000840121420000214206
:1003200070472DE9F04102460025002600200023F9
:100330000024002791F803C00CF00F0591F803C0CA
:100340000CF0100CBCF1000F03D091F802C04CEA85
:10035000050591F800C0BCF1000F31D014680020F1
:100360002BE04FF0010C0CFA00F3B1F800C00CEADE
:1003700003069E4220D183004FF00F0C0CFA03F7C6
:10038000BC4305FA03FC4CEA040491F803C0BCF139
:10039000280F06D14FF0010C0CFA00FCC2F814C073
:1003A0000AE091F803C0BCF1480F05D14FF0010CF1
:1003B0000CFA00FCC2F810C0401C0828D1D314600D
:1003C000B1F800C0BCF1FF0F34DD546800202EE00E
:1003D00000F1080C4FF0010808FA0CF3B1F800C066
:1003E0000CEA03069E4221D183004FF00F0C0CFA59
:1003F00003F7BC4305FA03FC4CEA040491F803C07C
:10040000BCF1280F05D100F1080C08FA0CF8C2F86D
:10041000148091F803C0BCF1480F07D100F1080C1B
:100420004FF0010808FA0CF8C2F81080401C0828A8
:10043000CED35460BDE8F0814161704701617047DF
:1004400000BFFEE710B54FF480710948FFF7F6FFD3
:100450004FF400710648FFF7F1FF4FF400710448B4
:10046000FFF7EAFF4FF480710148FFF7E5FF10BD89
:10047000000C014010B54FF480710748FFF7DEFF14
:100480004FF400710448FFF7D7FF4FF400710248A2
:10049000FFF7D4FF10BD0000000C014010B54FF471
:1004A00080710448FFF7CAFF4FF480710148FFF7DD
:1004B000C3FF10BD000C014000BFFEE7704770B5E0
:1004C0000646002418E004F1B000002100F069F9AC
:1004D0000021084600F065F90021102000F061F9C4
:1004E000002505E00121304600F05BF9681CC5B22B
:1004F000802DF7DB601CC4B2082CE4DB70BD00006B
:1005000008B50121082000F059F94FF44070ADF80A
:10051000000010208DF8030003208DF802006946CA
:100520003B48FFF7FEFE4FF440713948FFF786FF66
:10053000C82000F09DFA0021AE2000F032F9002121
:10054000084600F02EF90021102000F02AF90021C1
:10055000402000F026F90021B02000F022F900210F
:10056000812000F01EF90021FF2000F01AF900217F
:10057000A12000F016F90021A62000F012F90021B8
:10058000A82000F00EF900213F2000F00AF9002118
:10059000C82000F006F90021D32000F002F9002164
:1005A000084600F0FEF80021D52000F0FAF80021FE
:1005B000802000F0F6F80021D82000F0F2F80021A9
:1005C000052000F0EEF80021D92000F0EAF8002123
:1005D000F12000F0E6F80021DA2000F0E2F8002136
:1005E000122000F0DEF80021DB2000F0DAF8002114
:1005F000302000F0D6F800218D2000F0D2F8002144
:10060000142000F0CEF80021AF2000F0CAF808BD99
:10061000000C014070B504460D4605F1B000002104
:1006200000F0BFF8102141EA1410002100F0B9F8E1
:1006300004F00F00002100F0B4F870BD2DE9F04780
:1006400007460E469046994600250024A8F1200052
:10065000C5B27F2F02DD0027B01CC6B2B9F1100F62
:1006600024D131463846FFF7D5FF002408E004EBDB
:100670000511194A505C012100F093F8601CC4B2C6
:10068000082CF4DB701CC1B23846FFF7C3FF00240E
:1006900009E004EB051108310F4A505C012100F01C
:1006A00080F8601CC4B2082CF3DB12E031463846F7
:1006B000FFF7B0FF00240AE005EB4501074A02EB13
:1006C0004101085D012100F06CF8601CC4B2062CE9
:1006D000F2DBBDE8F0870000060E0008DE0B000824
:1006E0002DE9FF5F074691461E460E9D4FF0000A1A
:1006F000002435E0301B401EC1B20A2000F064FA2D
:10070000B9FBF0F00A21B0FBF1F201FB1208BAF1DB
:10071000000F14D1701EA04211DDB8F1000F0CD1F2
:10072000AB4605EBDB71491001FB0471C8B22B46E7
:1007300020220199FFF782FF10E04FF0010AAB463B
:1007400005EBDB71491001FB0471C8B208F13001FF
:10075000CAB22B460199FFF771FF00BF601CC4B2FB
:10076000B442C7DBBDE8FF9F2DE9F04104460F46C8
:100770001546984600260FE0AA5D434639462046B6
:10078000FFF75CFF04F10800C4B2782C02DD0024FE
:10079000B81CC7B2701CC6B2A85D0028ECD1BDE879
:1007A000F08170B504460D461DB1E0B200F018F9B5
:1007B00002E0E0B200F0FEF870BD704729B1064AD1
:1007C00092690243044B9A6104E0034A92698243AE
:1007D000014B9A617047000000100240704710B54D
:1007E00000F002F810BD00000CB500200190009050
:1007F0003348006840F480303149086000BF304819
:10080000006800F4003000900198401C01900098AE
:1008100018B90198B0F5A06FF1D12948006800F42B
:10082000003010B10120009001E0002000900098FD
:10083000012843D12348006840F010002149086096
:100840000846006820F0070008600846006840F08D
:10085000020008601A484068194948600846406824
:1008600048600846406840F4806048600846406838
:1008700020F47C1048600846406840F4E810486066
:100880000846006840F08070086000BF0C480068AF
:1008900000F000700028F9D00948406820F00300FB
:1008A000074948600846406840F00200486000BFC1
:1008B0000348406800F00C000828F9D10CBD000086
:1008C0000010024000200240042808D14FF0E0212F
:1008D000096941F004014FF0E022116107E04FF097
:1008E000E021096921F004014FF0E0221161704715
:1008F0007047000010B51348006840F0010011492E
:10090000086008464068104908400E49486008469B
:1009100000680E4908400B4908600846006820F44A
:10092000802008600846406820F4FE0048604FF4CC
:100930001F008860FFF753FF4FF000600449086014
:1009400010BD0000001002400000FFF8FFFFF6FE9F
:1009500008ED00E000BFFEE72DE9F04105462C461A
:100960004FF480711248FFF767FD00261CE0274610
:1009700007F08007802F04D1B9000D48FFF75EFD16
:1009800004E04FF400710A48FFF756FD6006040EBC
:100990004FF480710648FFF751FD4FF48071044811
:1009A000FFF74AFD701CC6B2082EE0DBBDE8F081FF
:1009B000000C014010B50446FFF744FD7820FFF716
:1009C000CBFFFFF76BFD0020FFF7C6FFFFF766FDCB
:1009D0002046FFF7C1FFFFF761FDFFF74BFD10BD9C
:1009E00010B50446FFF72EFD7820FFF7B5FFFFF79F
:1009F00055FD4020FFF7B0FFFFF750FD2046FFF701
:100A0000ABFFFFF74BFDFFF735FD10BD02E008C857
:100A1000121F08C1002AFAD170477047002001E078
:100A200001C1121F002AFBD17047000010B56FF002
:100A30000400FFF749FF0A4800680A49B0FBF1F0DB
:100A4000094908700846007800EB4001C1EBC0106E
:100A50004FF6FF7101EAC0000449088010BD000094
:100A60000000002000127A00140000201600002070
:100A70000146114A12884A434FF0E0235A6100228E
:100A80009A611A46126942F001021A6100BF4FF0E2
:100A9000E022106900F001021AB100F48032002A4D
:100AA000F5D04FF0E022126922F001024FF0E0236E
:100AB0001A6100229A617047160000200146114A0F
:100AC00012784A434FF0E0235A6100229A611A4695
:100AD000126942F001021A6100BF4FF0E022106972
:100AE00000F001021AB100F48032002AF5D04FF074
:100AF000E022126922F001024FF0E0231A61002285
:100B00009A6170471400002086B0FFF78FFFFFF74F
:100B1000F7FCFFF765FB0020FFF7D1FC102323A2B1
:100B200002210120FFF720FE102323A2042101202F
:100B3000FFF71AFE38E002AB03AA04A905A8FFF7E5
:100B4000A2FB1020032300909DF8142002214620D0
:100B5000FFF7C6FD10231BA202215E20FFF704FE53
:100B60001020012300909DF8102002216220FFF741
:100B7000B7FD1020032300909DF80C20042146208F
:100B8000FFF7AEFD10230FA204215E20FFF7ECFD5E
:100B90001020012300909DF8082004216220FFF717
:100BA0009FFD6420FFF764FFC5E7000054656D708A
:100BB00065722E203A00000048756D696469747989
:100BC0003A0000002E00000010B50246012000E0AF
:100BD00050430B1EA1F10104E1B2F9D110BD000098
:100BE000000000000000002F0000000007000700C8
:100BF00000147F147F1400242A7F2A1200626408E4
:100C00001323003649552250000005030000000060
:100C10001C224100000041221C000014083E081460
:100C20000008083E0808000000A06000000808084E
:100C30000808000060600000002010080402003E68
:100C40005149453E0000427F400000426151494603
:100C5000002141454B31001814127F1000274545F3
:100C60004539003C4A494930000171090503003605
:100C70004949493600064949291E00003636000018
:100C8000000056360000000814224100001414141D
:100C90001414000041221408000201510906003218
:100CA0004959513E007C1211127C007F4949493656
:100CB000003E41414122007F4141221C007F4949C1
:100CC0004941007F09090901003E4149497A007FF5
:100CD0000808087F0000417F4100002040413F019B
:100CE000007F08142241007F40404040007F020CFA
:100CF000027F007F0408107F003E4141413E007F9B
:100D000009090906003E4151215E007F0919294663
:100D10000046494949310001017F0101003F40403F
:100D2000403F001F2040201F003F4038403F0063ED
:100D3000140814630007087008070061514945430F
:100D400000007F41410000552A552A5500004141CD
:100D50007F000004020102040040404040400000C7
:100D600001020400002054545478007F4844443861
:100D700000384444442000384444487F00385454E8
:100D8000541800087E0901020018A4A4A47C007F66
:100D9000080404780000447D4000004080847D0009
:100DA000007F102844000000417F4000007C0418B0
:100DB0000478007C0804047800384444443800FC7B
:100DC000242424180018242418FC007C0804040897
:100DD00000485454542000043F444020003C40400C
:100DE000207C001C2040201C003C4030403C004443
:100DF00028102844001CA0A0A07C004464544C444B
:100E0000141414141414000000000000000000006A
:100E1000000000000000000000F8000000000000DA
:100E200000333000000000100C06100C060000001B
:100E300000000000000040C07840C0784000043F3F
:100E400004043F040400007088FC0830000000180F
:100E500020FF211E0000F008F000E0180000002133
:100E60001C031E211E0000F00888700000001E21D7
:100E700023241927211010160E0000000000000086
:100E8000000000000000000000E018040200000064
:100E900000071820400000020418E0000000004095
:100EA000201807000000404080F08040400002020F
:100EB000010F01020200000000F00000000001012B
:100EC000011F01010100000000000000000080B0CF
:100ED00070000000000000000000000000000001A1
:100EE00001010101010100000000000000000030CC
:100EF0003000000000000000000080601804006066
:100F000018060100000000E010080810E000000FC3
:100F1000102020100F00001010F80000000000202A
:100F2000203F202000000070080808887000003072
:100F3000282422213000003008888848300000181A
:100F4000202020110E000000C02010F80000000733
:100F50000424243F240000F80888880808000019A9
:100F6000212020110E0000E0108888180000000FDA
:100F7000112020110E0000380808C83808000000B1
:100F8000003F000000000070880808887000001C06
:100F9000222121221C0000E010080810E0000000BF
:100FA000312222110F00000000C0C000000000002C
:100FB0000030300000000000008000000000000051
:100FC0008060000000000000804020100800000148
:100FD000020408102000404040404040400004040B
:100FE00004040404040000081020408000000020D5
:100FF000100804020100007048080808F000000012
:10100000003036010000C030C828E810E0000718A2
:10101000272423140B000000C038E0000000203C0F
:1010200023020227382008F8888888700000203FB3
:10103000202020110E00C0300808080838000718CA
:1010400020202010080008F808080810E000203FC1
:10105000202020100F0008F88888E8081000203FA2
:1010600020202320180008F88888E8081000203F76
:10107000200003000000C0300808083800000718EE
:101080002020221E020008F808000008F808203F6F
:10109000210101213F20000808F808080000002075
:1010A000203F2020000000000808F8080800C08049
:1010B00080807F00000008F888C028180800203FC2
:1010C00020012638200008F8080000000000203F1A
:1010D00020202020300008F8F800F8F80800203F11
:1010E000003F003F200008F830C00008F808203F0B
:1010F000200007183F00E01008080810E0000F105B
:10110000202020100F0008F808080808F000203FF1
:10111000210101010000E01008080810E0000F188C
:10112000242438504F0008F8888888887000203FB1
:101130002000030C302000708808080838000038B0
:10114000202121221C00180808F8080818000000B7
:10115000203F2000000008F808000008F808001FE1
:10116000202020201F000878880000C838080000D0
:1011700007380E010000F80800F80008F800033CEA
:101180000700073C030008186880806818082030B2
:101190002C03032C30200838C800C8380800000091
:1011A000203F2000000010080808C8380800203838
:1011B000262120201800000000FE0202020000008C
:1011C000007F40404000000C30C0000000000000E4
:1011D00000010638C00000020202FE0000000040CC
:1011E00040407F00000000000402020204000000F2
:1011F00000000000000000000000000000008080EF
:1012000080808080808000020204000000000000D6
:1012100000000000000000008080808000000019B5
:10122000242222223F2008F8008080000000003F96
:10123000112020110E000000008080800000000EB0
:10124000112020201100000000808088F800000E8E
:10125000112020103F200000808080800000001FAF
:10126000222222221300008080F088888818002023
:10127000203F202000000000808080808000006BE4
:1012800094949493600008F8008080800000203FD0
:10129000210000203F2000809898000000000020DE
:1012A000203F20200000000000809898000000C02F
:1012B0008080807F000008F8000080808000203F50
:1012C00024022D302000000808F800000000002053
:1012D000203F202000008080808080808000203F90
:1012E00020003F20003F8080008080800000203F61
:1012F000210000203F200000808080800000001F2F
:10130000202020201F00808000808000000080FFBF
:10131000A12020110E000000008080808000000EBF
:10132000112020A0FF80808080008080800020200D
:101330003F21200001000000808080808000003379
:10134000242424241900008080E080800000000014
:10135000001F202000008080000000808000001F0F
:10136000202020103F2080808000008080800001AD
:101370000E300806010080800080008080800F30E1
:101380000C030C300F000080800080808000002063
:10139000312E0E312000808080000080808080818E
:1013A0008E701806010000808080808080000021FF
:1013B000302C2221300000000000807C020200005E
:1013C0000000003F404000000000FF00000000005F
:1013D0000000FF0000000002027C800000000040CE
:1013E000403F00000000000601010202040400006A
:1013F0000000000000000000181400080000002099
:10140000180000000C0A0008301400081800002022
:10141000000400001C0A000800A24A0400000000AA
:101420000000000001020304060708090000000094
:04000005080000ED02
:00000001FF
