:020000040800F2
:10000000201400200501000831040008B503000891
:100010002D040008A30100084108000800000000AA
:10002000000000000000000000000000C9060008F9
:100030001D02000800000000A7060008DD070008F8
:100040001F0100081F0100081F0100081F01000810
:100050001F0100081F0100081F0100081F01000800
:100060001F0100081F0100081F0100081F010008F0
:100070001F0100081F0100081F0100081F010008E0
:100080001F0100081F0100081F0100081F010008D0
:100090001F0100081F0100081F0100081F010008C0
:1000A0001F0100081F0100081F0100081F010008B0
:1000B0001F0100081F0100081F0100081F010008A0
:1000C0001F0100081F0100081F0100081F01000890
:1000D0001F0100081F0100081F0100081F01000880
:1000E000210200081F0100081F010008DFF810D0DE
:1000F00000F01AF800480047A9090008AFF3008093
:10010000201400200648804706480047FEE7FEE727
:10011000FEE7FEE7FEE7FEE7FEE7FEE7FEE7FEE7B7
:10012000E1070008ED000008064C074D06E0E06816
:1001300040F0010394E8070098471034AC42F6D32E
:10014000FFF7D8FF601200088012000870B58C1805
:1001500010F8015B15F0070301D110F8013B2A11DB
:1001600006D110F8012B03E010F8016B01F8016BC8
:100170005B1EF9D12B0705D40023521E0DD401F8C4
:10018000013BFAE710F8013BCB1A921C03E013F88D
:10019000015B01F8015B521EF9D5A142D8D30020C2
:1001A00070BD00BFFEE7000008B50121082000F087
:1001B0007BFA48208DF803004FF48040ADF8000032
:1001C00003208DF802006946014800F05BF808BD85
:1001D000000C014010B54FF480410E4800F0DDF8EE
:1001E000A8B9142000F0BAFB00BF4FF480410948C1
:1001F00000F0D3F80028F8D0142000F0AFFB064838
:10020000007808B9012000E0002003490870024886
:10021000007810BD000C0140141000207047000051
:1002200010B54FF4804000F019F801280CD10748B0
:100230000088401C054908804FF4967000F08EFB42
:100240004FF4804000F004F810BD00001A100020A8
:100250000149086070470000140401400146002075
:100260000022074B1B6803EA0102054B14331B688D
:100270000B4013B10AB1012000E0002070470000DC
:10028000000401402DE9F04102460025002600202F
:1002900000230024002791F803C00CF00F0591F80B
:1002A00003C00CF0100CBCF1000F03D091F802C099
:1002B0004CEA050591F800C0BCF1000F31D014687C
:1002C00000202BE04FF0010C0CFA00F3B1F800C055
:1002D0000CEA03069E4220D183004FF00F0C0CFA6B
:1002E00003F7BC4305FA03FC4CEA040491F803C08D
:1002F000BCF1280F06D14FF0010C0CFA00FCC2F83B
:1003000014C00AE091F803C0BCF1480F05D14FF0CA
:10031000010C0CFA00FCC2F810C0401C0828D1D314
:100320001460B1F800C0BCF1FF0F34DD5468002048
:100330002EE000F1080C4FF0010808FA0CF3B1F8B8
:1003400000C00CEA03069E4221D183004FF00F0C3F
:100350000CFA03F7BC4305FA03FC4CEA040491F8D9
:1003600003C0BCF1280F05D100F1080C08FA0CF805
:10037000C2F8148091F803C0BCF1480F07D100F116
:10038000080C4FF0010808FA0CF8C2F81080401C65
:100390000828CED35460BDE8F0810246002093685F
:1003A0000B400BB1012000E0002070474161704715
:1003B0000161704700BFFEE710B54FF48071094836
:1003C000FFF7F6FF4FF400710648FFF7F1FF4FF417
:1003D00000710448FFF7EAFF4FF480710148FFF70E
:1003E000E5FF10BD000C014010B54FF480710748C7
:1003F000FFF7DEFF4FF400710448FFF7D7FF4FF41B
:1004000000710248FFF7D4FF10BD0000000C01404E
:1004100010B54FF480710448FFF7CAFF4FF48071A4
:100420000148FFF7C3FF10BD000C014000BFFEE70D
:10043000704770B50646002418E004F1B0000021B2
:1004400000F025F90021084600F021F900211020D4
:1004500000F01DF9002505E00121304600F017F9F4
:10046000681CC5B2802DF7DB601CC4B2082CE4DB2D
:1004700070BD000008B50121082000F015F94FF407
:100480004070ADF8000010208DF8030003208DF8B7
:10049000020069463B48FFF7F5FE4FF440713948CA
:1004A000FFF786FFC82000F059FA0021AE2000F0C7
:1004B000EEF80021084600F0EAF80021102000F0D4
:1004C000E6F80021402000F0E2F80021B02000F022
:1004D000DEF80021812000F0DAF80021FF2000F092
:1004E000D6F80021A12000F0D2F80021A62000F0CB
:1004F000CEF80021A82000F0CAF800213F2000F02B
:10050000C6F80021C82000F0C2F80021D32000F076
:10051000BEF80021084600F0BAF80021D52000F00E
:10052000B6F80021802000F0B2F80021D82000F0B9
:10053000AEF80021052000F0AAF80021D92000F033
:10054000A6F80021F12000F0A2F80021DA2000F046
:100550009EF80021122000F09AF80021DB2000F024
:1005600096F80021302000F092F800218D2000F054
:100570008EF80021142000F08AF80021AF2000F04E
:1005800086F808BD000C014070B504460D4605F123
:10059000B000002100F07BF8102141EA1410002186
:1005A00000F075F804F00F00002100F070F870BD45
:1005B0002DE9F04707460E4690469946002500244F
:1005C000A8F12000C5B27F2F02DD0027B01CC6B203
:1005D000B9F1100F24D131463846FFF7D5FF00247A
:1005E00008E004EB0511194A505C012100F04FF8B6
:1005F000601CC4B2082CF4DB701CC1B23846FFF793
:10060000C3FF002409E004EB051108310F4A505CD8
:10061000012100F03CF8601CC4B2082CF3DB12E0AE
:1006200031463846FFF7B0FF00240AE005EB4501EC
:10063000074A02EB4101085D012100F028F8601C27
:10064000C4B2062CF2DBBDE8F0870000700C000895
:10065000480A00082DE9F04104460F461546984621
:1006600000260FE0AA5D434639462046FFF7A0FF6B
:1006700004F10800C4B2782C02DD0024B81CC7B213
:10068000701CC6B2A85D0028ECD1BDE8F08170B541
:1006900004460D461DB1E0B200F018F902E0E0B2E8
:1006A00000F0FEF870BD704729B1064A9269024316
:1006B000044B9A6104E0034A92698243014B9A61B8
:1006C0007047000000100240704710B500F002F8BB
:1006D00010BD00000CB50020019000903348006868
:1006E00040F480303149086000BF3048006800F4B1
:1006F000003000900198401C0190009818B90198B2
:10070000B0F5A06FF1D12948006800F4003010B1B5
:100710000120009001E0002000900098012843D1C2
:100720002348006840F0100021490860084600682E
:1007300020F0070008600846006840F002000860EA
:100740001A484068194948600846406848600846A9
:10075000406840F4806048600846406820F47C109F
:1007600048600846406840F4E81048600846006861
:1007700040F08070086000BF0C48006800F0007016
:100780000028F9D00948406820F003000749486074
:100790000846406840F00200486000BF03484068D7
:1007A00000F00C000828F9D10CBD00000010024038
:1007B00000200240042808D14FF0E021096941F0EF
:1007C00004014FF0E022116107E04FF0E0210969D8
:1007D00021F004014FF0E0221161704770470000E2
:1007E00010B51348006840F0010011490860084640
:1007F0004068104908400E494860084600680E49A4
:1008000008400B4908600846006820F48020086012
:100810000846406820F4FE0048604FF41F008860DE
:10082000FFF753FF4FF000600449086010BD00005F
:10083000001002400000FFF8FFFFF6FE08ED00E0A8
:1008400000BFFEE72DE9F04105462C464FF48071CC
:100850001248FFF7ABFD00261CE0274607F0800793
:10086000802F04D1B9000D48FFF7A2FD04E04FF43A
:1008700000710A48FFF79AFD6006040E4FF480717C
:100880000648FFF795FD4FF480710448FFF78EFD91
:10089000701CC6B2082EE0DBBDE8F081000C014000
:1008A00010B50446FFF788FD7820FFF7CBFFFFF770
:1008B000AFFD0020FFF7C6FFFFF7AAFD2046FFF7B8
:1008C000C1FFFFF7A5FDFFF78FFD10BD10B5044672
:1008D000FFF772FD7820FFF7B5FFFFF799FD402085
:1008E000FFF7B0FFFFF794FD2046FFF7ABFFFFF7E0
:1008F0008FFDFFF779FD10BD02E008C8121F08C187
:10090000002AFAD170477047002001E001C1121F90
:10091000002AFBD17047000010B56FF00400FFF70C
:1009200049FF0A4800680A49B0FBF1F0094908701C
:100930000846007800EB4001C1EBC0104FF6FF7194
:1009400001EAC0000449088010BD0000000000203A
:1009500000127A0016100020181000200146114ADB
:1009600012884A434FF0E0235A6100229A611A46E6
:10097000126942F001021A6100BF4FF0E0221069D3
:1009800000F001021AB100F48032002AF5D04FF0D5
:10099000E022126922F001024FF0E0231A610022E6
:1009A0009A6170471810002008B501210420FFF754
:1009B0007BFE0120ADF8000002208DF8020010201F
:1009C0008DF8030069461A48FFF75CFC01211848BE
:1009D000FFF7EEFCFFF7A0FFFFF74CFDFFF7E4FB8E
:1009E0000020FFF726FD102312A202210846FFF780
:1009F00031FE1CE0FFF7EEFB104908700846007856
:100A000001280AD101210A48FFF7D0FC10230CA2CB
:100A100002213C20FFF71EFE09E001210448FFF7F8
:100A2000C7FC102307A202213C20FFF713FEE1E7D9
:100A3000000801405374617475733A00141000206B
:100A40004F6E20004F6666000000000000000000AE
:100A5000002F000000000700070000147F147F141F
:100A600000242A7F2A1200626408132300364955A5
:100A7000225000000503000000001C22410000007D
:100A800041221C000014083E08140008083E080813
:100A9000000000A06000000808080808000060606E
:100AA0000000002010080402003E5149453E0000AD
:100AB000427F4000004261514946002141454B318F
:100AC000001814127F10002745454539003C4A495B
:100AD00049300001710905030036494949360006CD
:100AE0004949291E00003636000000005636000035
:100AF00000081422410000141414141400004122B0
:100B0000140800020151090600324959513E007C87
:100B10001211127C007F49494936003E4141412271
:100B2000007F4141221C007F49494941007F09095A
:100B30000901003E4149497A007F0808087F00000A
:100B4000417F4100002040413F01007F08142241C5
:100B5000007F40404040007F020C027F007F04087D
:100B6000107F003E4141413E007F09090906003ED9
:100B70004151215E007F0919294600464949493102
:100B80000001017F0101003F4040403F001F204025
:100B9000201F003F4038403F0063140814630007E3
:100BA0000870080700615149454300007F4141003A
:100BB00000552A552A55000041417F0000040201DA
:100BC00002040040404040400000010204000020B8
:100BD00054545478007F48444438003844444420F6
:100BE00000384444487F00385454541800087E09A3
:100BF00001020018A4A4A47C007F0804047800006B
:100C0000447D4000004080847D00007F1028440027
:100C10000000417F4000007C04180478007C080438
:100C2000047800384444443800FC24242418001874
:100C3000242418FC007C0804040800485454542060
:100C400000043F444020003C4040207C001C2040E9
:100C5000201C003C4030403C004428102844001C2C
:100C6000A0A0A07C004464544C4414141414141424
:100C70000000000000000000000000000000000074
:100C8000000000F800000000000000333000000009
:100C900000100C06100C0600000000000000000010
:100CA00040C07840C0784000043F04043F04040082
:100CB000007088FC08300000001820FF211E000092
:100CC000F008F000E018000000211C031E211E00A7
:100CD00000F00888700000001E212324192721102D
:100CE00010160E00000000000000000000000000D0
:100CF000000000E018040200000000071820400077
:100D000000020418E0000000004020180700000066
:100D1000404080F0804040000202010F01020200CA
:100D2000000000F0000000000101011F01010100AE
:100D3000000000000000000080B070000000000013
:100D4000000000000000000000010101010101019C
:100D50000000000000000000003030000000000033
:100D60000000000080601804006018060100000008
:100D700000E010080810E000000F102020100F0005
:100D8000001010F8000000000020203F202000008C
:100D900000700808088870000030282422213000E4
:100DA00000300888884830000018202020110E00EC
:100DB0000000C02010F8000000070424243F240095
:100DC00000F80888880808000019212020110E006A
:100DD00000E0108888180000000F112020110E007C
:100DE00000380808C83808000000003F0000000074
:100DF0000070880808887000001C222121221C0035
:100E000000E010080810E0000000312222110F005D
:100E1000000000C0C00000000000003030000000F2
:100E20000000008000000000000080600000000062
:100E3000000080402010080000010204081020007B
:100E400040404040404040000404040404040400C6
:100E5000000810204080000000201008040201005B
:100E6000007048080808F00000000030360100005B
:100E7000C030C828E810E0000718272423140B000E
:100E80000000C038E0000000203C23020227382088
:100E900008F8888888700000203F202020110E006C
:100EA000C030080808083800071820202010080063
:100EB00008F808080810E000203F202020100F004C
:100EC00008F88888E8081000203F20202320180018
:100ED00008F88888E8081000203F20000300000080
:100EE000C03008080838000007182020221E020021
:100EF00008F808000008F808203F210101213F20E0
:100F0000000808F8080800000020203F202000000A
:100F100000000808F8080800C08080807F000000FA
:100F200008F888C028180800203F20012638200033
:100F300008F8080000000000203F2020202030009A
:100F400008F8F800F8F80800203F003F003F2000B4
:100F500008F830C00008F808203F200007183F00BC
:100F6000E01008080810E0000F10202020100F00EB
:100F700008F808080808F000203F210101010000DE
:100F8000E01008080810E0000F18242438504F0023
:100F900008F8888888887000203F2000030C3020E3
:100FA00000708808080838000038202121221C0021
:100FB000180808F8080818000000203F200000006A
:100FC00008F808000008F808001F202020201F0053
:100FD0000878880000C83808000007380E010000B3
:100FE000F80800F80008F800033C0700073C03007D
:100FF000081868808068180820302C03032C3020E3
:101000000838C800C83808000000203F2000000051
:1010100010080808C83808002038262120201800A9
:10102000000000FE020202000000007F404040007D
:10103000000C30C000000000000000010638C000B5
:1010400000020202FE000000004040407F0000005D
:101050000000040202020400000000000000000082
:101060000000000000000000808080808080808080
:101070000002020400000000000000000000000068
:1010800000008080808000000019242222223F205E
:1010900008F8008080000000003F112020110E00A1
:1010A0000000008080800000000E11202020110030
:1010B000000000808088F800000E112020103F20E2
:1010C0000000808080800000001F22222222130066
:1010D000008080F0888888180020203F20200000B1
:1010E0000000808080808000006B94949493600066
:1010F00008F8008080800000203F210000203F2071
:1011000000809898000000000020203F2020000070
:10111000000000809898000000C08080807F000060
:1011200008F8000080808000203F24022D3020003D
:10113000000808F8000000000020203F20200000E8
:101140008080808080808000203F20003F20003F02
:101150008080008080800000203F210000203F2010
:101160000000808080800000001F202020201F00C1
:10117000808000808000000080FFA12020110E00F0
:101180000000008080808000000E112020A0FF80E1
:10119000808080008080800020203F21200001008E
:1011A00000008080808080000033242424241900E3
:1011B000008080E0808000000000001F20200000F0
:1011C0008080000000808000001F202020103F2031
:1011D000808080000080808000010E3008060100C1
:1011E00080800080008080800F300C030C300F0066
:1011F00000808000808080000020312E0E31200091
:10120000808080000080808080818E7018060100C0
:1012100000808080808080000021302C22213000DE
:1012200000000000807C020200000000003F4040FF
:1012300000000000FF00000000000000FF000000B0
:101240000002027C800000000040403F00000000DF
:10125000000601010202040400000000000000007A
:1012600080120008000000201C1000004C01000843
:10127000F81600081C1000200404000008090008EB
:101280001184A24A04100901020304060708091088
:101290000A03050911FF118905C312E012F072F863
:1012A000073D4428FF11AA44700B83013844829201
:1012B0009274018328087C44FF017D7D7D044905EB
:1012C0005C7D01FF8D990279A1890B0136694199F5
:1012D00049FA0101011D38083F3F0303F3131101CF
:1012E0001E01F1116181312D816111F1393B4141C3
:1012F000072C01C1211EAB21C11439013936073831
:10130000D33303033F3F23E0E06A7FA81A7FBF4C3B
:101310000618060A213640407F40401C1F2040012D
:10132000AB201F14113A600E6C300C034601361CC2
:101330000707060178090404048444444484071C14
:101340000484C405790E09110A7911294003410763
:10135000072610181412112E0F1010100F0F331F24
:101360001026081012120D22186B0D120A59295955
:101370000701605A8001013D20087F030C300C03F7
:101380007F2538545458257C04047805223C40407D
:101390007C17FFAAAAAA28080A2CFF681E2649491A
:1013A0004932101D020408100F100A060A1222FE0C
:1013B00022120A8612C012E052F016F80402020449
:1013C0005EFE040804FE0C490641678850FE225464
:1013D00088700C10084424129212244408105EFCF9
:1013E000FA76AEDE01B5AE76FAFCB808F88888FE6B
:1013F00002FAFA0362FE9A0302513D010202010C55
:101400001904390C5906492E790A392BBA030E9B57
:10141000020301B929393AD901596F011B2009C0CA
:101420006030180C06FFFF7BFEFF583AFFB84360A0
:10143000608CFEFFC301091126014529809AFF5ADD
:10144000190F213B1818A1DAC026B90F01411A80E3
:1014500001211E0383808081792B83837F1C8383FA
:10146000811459203A83141906190722016A010CC4
:10147000B9260139172130282422211B1F200112EF
:101480001F1621203F20201B1F2401221F23303044
:10149000591939130A131913015F5A8001013910C0
:1014A000087F02040804027F38081C2A4949494A77
:1014B00024101C10207FC71C404040C8091E3F1646
:1014C0002A2A2A08080A267F671A26667C49493292
:1014D00067012617FC44C44448305AFC0E111AFC1C
:1014E0003C1A40F4A90A9C04FC040E1DF0080444B4
:1014F000010246C822072C0102040419012B020133
:1015000010319C0102070A9C0407040E392B4B0280
:101510000111013C6EF0F80C06030145079EF8F03E
:101520007BFFFF132901611D38FCFEFF016EFEFEEB
:10153000FCFCFE0A0241384FC1E367361C18014625
:101540001C3663C1808B0F0F943C060EFC9429F966
:101550000011430307070F1F1F3F7F3F1F1F0F0788
:101560000703017D1F3F60C0013560703F1F8C186D
:101570003870155560303F0F16FE100808F04AF01D
:101580000619053909015AAD80C040C00F12801BF1
:101590000101F13A070649033904094770300A404E
:1015A000300C0601010678802CC038065C3C031C18
:1015B000E01B1C700C030D2B0C301B110C4AF00CA3
:1015C0000278718953A507181807190E398B492518
:1015D000055F0E10100F680B8080C0402020301077
:1015E000100801000F55101030302020604040409E
:1015F000C0808080180AC060180804060202010139
:101600001982011B080A4A01010302040C08106038
:10161000893BFE0FF83809C0E0E0F0F8FCFEFF015E
:101620002AFE016AFC017AF8015AF079044981CF57
:10163000381808033FE0804FE7F7012CB717B707CA
:10164000380AF7EF1F9FDFDFDF1F6F0D69152A6F65
:1016500014000B4CDFCFE0F0E0028745493068080A
:1016600001030F1E3E7DFD01780BDE9E9F1F1F1F95
:101670009F9F9EDE13000F58FDFCFEFE7F7F3F1FE5
:101680000F0F070703011E0101030307017A0F0172
:10169000290E0E4F030303010174671E3F7FCECC5A
:1016A00080000B112424244C4888101060C01012B4
:1016B00008282CE466765858D0D8585662E6242478
:1016C00020280E202C24E4665E58D8D8585E76E296
:1016D000110939F0200B030306060E0E0F0F0E043E
:1016E0003203290401111B0F12012B1313057B1068
:0816F0000C1259115912011EE0
:04000005080000ED02
:00000001FF
