:020000040800F2
:1000000020040020050100089508000819080008D0
:10001000910800083705000885110008000000005D
:10002000000000000000000000000000990C000823
:100030003B05000800000000170C0008E10D000857
:100040001F0100081F0100081F0100081F01000810
:100050001F0100081F0100081F0100081F01000800
:100060001F0100081F0100081F0100081F010008F0
:100070001F0100081F0100081F0100081F010008E0
:100080001F0100081F0100081F0100081F010008D0
:100090001F0100081F0100081F0100081F010008C0
:1000A0001F0100081F0100081F0100081F010008B0
:1000B000450E00086D0E00081F0100081F01000812
:1000C0001F0100081F0100081F0100081F01000890
:1000D0001F0100081F0100081F0100081F01000880
:1000E0001F0100081F0100081F010008DFF810D0E1
:1000F00000F0F0F90048004739130008AFF3008022
:10010000200400200648804706480047FEE7FEE737
:10011000FEE7FEE7FEE7FEE7FEE7FEE7FEE7FEE7B7
:10012000E50D0008ED000008F0B480EA0102D40FEC
:100130004200B2EB410F02D20246084611464A0085
:1001400042D0C30DDDB2C1F3C752AD1A202D35DA4E
:10015000C1F3160141F4000204B15242C5F1200678
:1001600002FA06F12A411044B3EBD05F23D0C4B1A8
:10017000012DA0EBC35009DCF0BC4FF0004202EAB5
:10018000C352DBB200F5000000F018B9400000F1E6
:10019000807000EBC350A0F1807040EAD17049003C
:1001A00009E0490841EAC071A0EBC35000F5000026
:1001B000400800EBC350F0BC00F0F7B861420122E8
:1001C00002EB4101001BF6E7F0BC704781F00041F3
:1001D000AAE780F00040A7E780EA010210B502F02C
:1001E0000043400022D04A001FD0010E01EB1261F3
:1001F000C0F35600C2F3560240F4000042F400027D
:10020000A0FB022000047F39140400D0401C50EAF7
:10021000124001D44000491EC2B20C0604EBD010BB
:10022000401C4008802A02D003E0002010BD20F0CE
:100230000100002900DA0020184310BD2DE9F04D1F
:1002400081EA030404F0004B21F0004514464FF00E
:10025000000A23F0004150EA050220D054EA0102CE
:100260001DD0C5F30A570246C5F31303C1F31300AB
:10027000C1F30A5640F4801543F48013A7EB060837
:10028000101BD64608F2FD3873EB050002D308F1C7
:10029000010801E092185B41B8F1000F03DA002079
:1002A0000146BDE8F08D00204FF4801106468446DB
:1002B0000EE0171B73EB050705D3121B63EB050359
:1002C00006434CEA010C49084FEA300092185B41A2
:1002D00050EA0107EDD152EA030012D082EA04008D
:1002E00083EA0501084305D0101BAB4106D2012269
:1002F000002306E000224FF0004302E06FF001020D
:1003000053101AEB06004CEB085110EB0A0041EBBE
:100310000B01BDE8F04D00F07FB896230022114696
:1003200000F04CB820F00040C10DC0F3160040F4BE
:1003300000007F2901DA00207047962903DCC1F113
:100340009601C840704796398840704700F00042D7
:1003500030F000400AD0C10D01F56071C0F3160005
:1003600042EA0151C208400711437047002001468C
:10037000704701F0004330B421F0004150EA01021F
:1003800006D00A0DA2F56072C1F31301002A02DC47
:1003900030BC00207047440F44EAC104C100E0189B
:1003A00030BC00EBC250AFF300800029A8BF7047FB
:1003B000401C490008BF20F00100704710B4B0FA9B
:1003C00080FC00FA0CF050EA010404BF10BC704736
:1003D00049B1CCF1200421FA04F411FA0CF118BF50
:1003E000012121430843A3EB0C01CB1D4FEA00611F
:1003F0004FEA102042BF002010BC704700EBC350F2
:1004000010440029A4BF10BC7047401C490008BF1D
:1004100020F0010010BC704710B5141E73F10004E9
:1004200008DA401C41F1000192185B411A4301D1E6
:1004300020F0010010BD2DE9F04D92469B4611B110
:10044000B1FA81F202E0B0FA80F22032904600F078
:1004500053F804460F4640EA0A0041EA0B015346AE
:100460005A46084313D0114653EA010019D0C8F187
:100470004002504600F04FF805460E465046594699
:10048000424600F039F8084305D0012004E0204638
:100490003946BDE8F08D0020054346EAE0762C435E
:1004A00037430A986305E40AA0EB08000022FD0A1E
:1004B00044EA47540A3002D500200146E9E7010525
:1004C00010196941DDE9084500196941BDE8F04DA1
:1004D000A2E70000064C074D06E0E06840F001038B
:1004E00094E8070098471034AC42F6D3FFF702FEB9
:1004F0000C1C00082C1C0008202A04DB203A00FAFF
:1005000002F1002070479140C2F1200320FA03F36A
:10051000194390407047202A04DB203A21FA02F068
:100520000021704721FA02F3D040C2F1200291402D
:1005300008431946704700BFFEE770472DE9F041B8
:10054000024600250026002000230024002791F801
:1005500003C00CF00F0591F803C00CF0100CBCF1B7
:10056000000F03D091F802C04CEA050591F800C0D5
:10057000BCF1000F31D0146800202BE04FF0010CCB
:100580000CFA00F3B1F800C00CEA03069E4220D139
:1005900083004FF00F0C0CFA03F7BC4305FA03FC81
:1005A0004CEA040491F803C0BCF1280F06D14FF0C7
:1005B000010C0CFA00FCC2F814C00AE091F803C068
:1005C000BCF1480F05D14FF0010C0CFA00FCC2F849
:1005D00010C0401C0828D1D31460B1F800C0BCF191
:1005E000FF0F34DD546800202EE000F1080C4FF0BE
:1005F000010808FA0CF3B1F800C00CEA03069E42A9
:1006000021D183004FF00F0C0CFA03F7BC4305FA1D
:1006100003FC4CEA040491F803C0BCF1280F05D197
:1006200000F1080C08FA0CF8C2F8148091F803C025
:10063000BCF1480F07D100F1080C4FF0010808FA8F
:100640000CF8C2F81080401C0828CED35460BDE8D6
:10065000F0814161704701617047000010B500BF33
:100660000A4800884FF47A7100FB01F4084800F052
:1006700017FD04440020064924310880322000F090
:100680000FFE2046FFF749FE10BD00001A000020B3
:10069000000400402DE9FC5F4FF0000A0024A3464F
:1006A0000020019000BF34E001202449086014209C
:1006B00000F01CFE00202249C1F8800100BF1F4845
:1006C0007C3800680028FAD000F05CFB00BF1B48B3
:1006D0007C3800680128FAD000F066FBFFF7BEFF07
:1006E0000546FFF71FFE82465046FFF716FE0090B4
:1006F000FFF72CFE0746134A134BFFF79FFD0546F5
:10070000FFF737FE834658460199FFF70DFD01902C
:10071000641C052CC8DB0D480199FFF75DFD0090B6
:10072000FFF714FE05460022094BFFF787FD074639
:10073000FFF71FFE81464846BDE8FC9F800121422D
:10074000000021429A99999999194D400000C84298
:100750000000144000B585B00121042000F07CFAAF
:100760000120ADF8040003208DF8060010208DF85C
:10077000070001A92648FFF7E1FE01212448FFF701
:1007800068FF0220ADF8040028208DF8070001A9B9
:100790001F48FFF7D3FE02211D48FFF75AFF012132
:1007A000022000F039FA1B4800F086FB4FF6FF707C
:1007B000ADF80C004720ADF808000020ADF80E00A1
:1007C000ADF80A0002A9134800F08AFC0121114883
:1007D00000F060FB012211460E4800F075FC4FF45A
:1007E000A06000F091F81D208DF8000000208DF829
:1007F00001008DF8020001208DF80300684600F02A
:100800004BF80021034800F04BFB05B000BD000091
:10081000000801400004004000BFFEE710B54FF49F
:1008200080710948FFF717FF4FF400710648FFF782
:1008300012FF4FF400710448FFF70BFF4FF4807173
:100840000148FFF706FF10BD000C014010B54FF442
:1008500080710748FFF7FFFE4FF400710448FFF76F
:10086000F8FE4FF400710248FFF7F5FE10BD0000DE
:10087000000C014010B54FF480710448FFF7EBFE07
:100880004FF480710148FFF7E4FE10BD000C0140F9
:1008900000BFFEE77047000070B5002100230F2263
:1008A000C47804B3154C246804F4E064C4F5E0642F
:1008B000210AC1F10403CA40447804FA03F18478A0
:1008C0001440214309010E4C0678A155047804F028
:1008D0001F050124AC4005786D11AD0005F1E02540
:1008E000C5F8004109E0047804F01F050124AC407C
:1008F000044D0678761145F8264070BD0CED00E0F9
:1009000000E400E080E100E002490143024A116096
:10091000704700000000FA050CED00E070B50646D7
:10092000002418E004F1B000002100F068F9002173
:10093000084600F064F90021102000F060F900255D
:1009400005E00121304600F05AF9681CC5B2802D3F
:10095000F7DB601CC4B2082CE4DB70BD08B50121D4
:10096000082000F079F94FF44070ADF80000102035
:100970008DF8030003208DF8020069463B48FFF71D
:10098000DDFD4FF440713948FFF765FEC82000F0E7
:1009900087FC0021AE2000F032F90021084600F06B
:1009A0002EF90021102000F02AF90021402000F04B
:1009B00026F90021B02000F022F90021812000F06A
:1009C0001EF90021FF2000F01AF90021A12000F0FB
:1009D00016F90021A62000F012F90021A82000F04D
:1009E0000EF900213F2000F00AF90021C82000F094
:1009F00006F90021D32000F002F90021084600F09A
:100A0000FEF80021D52000F0FAF80021802000F047
:100A1000F6F80021D82000F0F2F80021052000F0BF
:100A2000EEF80021D92000F0EAF80021F12000F0D2
:100A3000E6F80021DA2000F0E2F80021122000F0B0
:100A4000DEF80021DB2000F0DAF80021302000F091
:100A5000D6F800218D2000F0D2F80021142000F0FB
:100A6000CEF80021AF2000F0CAF808BD000C01400C
:100A700070B504460D4605F1B000002100F0BFF846
:100A8000102141EA1410002100F0B9F804F00F0021
:100A9000002100F0B4F870BD2DE9F04707460E467E
:100AA0009046994600250024A8F12000C5B27F2F6A
:100AB00002DD0027B01CC6B2B9F1100F24D13146B7
:100AC0003846FFF7D5FF002408E004EB0511194A6A
:100AD000505C012100F093F8601CC4B2082CF4DBD8
:100AE000701CC1B23846FFF7C3FF002409E004EBD5
:100AF000051108310F4A505C012100F080F8601C9C
:100B0000C4B2082CF3DB12E031463846FFF7B0FFE1
:100B100000240AE005EB4501074A02EB4101085DAC
:100B2000012100F06CF8601CC4B2062CF2DBBDE8B9
:100B3000F08700001A160008F21300082DE9FF5F85
:100B4000074691461E460E9D4FF0000A002435E0F0
:100B5000301B401EC1B20A2000F040FCB9FBF0F08F
:100B60000A21B0FBF1F201FB1208BAF1000F14D117
:100B7000701EA04211DDB8F1000F0CD1AB4605EBA1
:100B8000DB71491001FB0471C8B22B462022019988
:100B9000FFF782FF10E04FF0010AAB4605EBDB7177
:100BA000491001FB0471C8B208F13001CAB22B46EA
:100BB0000199FFF771FF00BF601CC4B2B442C7DBEC
:100BC000BDE8FF9F2DE9F04104460F4615469846C3
:100BD00000260FE0AA5D434639462046FFF75CFF3A
:100BE00004F10800C4B2782C02DD0024B81CC7B29E
:100BF000701CC6B2A85D0028ECD1BDE8F08170B5CC
:100C000004460D461DB1E0B200F002FB02E0E0B286
:100C100000F0E8FA70BD704729B1064AD269024374
:100C2000044BDA6104E0034AD2698243014BDA6182
:100C3000704700000010024029B1064A12690243C1
:100C4000044B1A6104E0034A12698243014B1A61A2
:100C5000704700000010024029B1064A9269024321
:100C6000044B9A6104E0034A92698243014B9A6102
:100C7000704700000010024029B1064AD2680243C2
:100C8000044BDA6004E0034AD2688243014BDA6025
:100C90007047000000100240704710B500F002F8E5
:100CA00010BD00000CB50020019000903348006892
:100CB00040F480303149086000BF3048006800F4DB
:100CC000003000900198401C0190009818B90198DC
:100CD000B0F5A06FF1D12948006800F4003010B1E0
:100CE0000120009001E0002000900098012843D1ED
:100CF0002348006840F01000214908600846006859
:100D000020F0070008600846006840F00200086014
:100D10001A484068194948600846406848600846D3
:100D2000406840F4806048600846406820F47C10C9
:100D300048600846406840F4E8104860084600688B
:100D400040F08070086000BF0C48006800F0007040
:100D50000028F9D00948406820F00300074948609E
:100D60000846406840F00200486000BF0348406801
:100D700000F00C000828F9D10CBD00000010024062
:100D80000020024010B50021054800F0A6F900201F
:100D9000044908800121024800F082F810BD0000DB
:100DA000000400401A00002010B50021014800F0A6
:100DB00077F810BD00040040042808D14FF0E0216E
:100DC000096941F004014FF0E022116107E04FF0A2
:100DD000E021096921F004014FF0E0221161704720
:100DE0007047000010B51348006840F00100114939
:100DF000086008464068104908400E4948600846A7
:100E000000680E4908400B4908600846006820F455
:100E1000802008600846406820F4FE0048604FF4D7
:100E20001F008860FFF739FF4FF000600449086039
:100E300010BD0000001002400000FFF8FFFFF6FEAA
:100E400008ED00E010B50121880700F02CF9012819
:100E500008D105480088401C034908800121880703
:100E600000F01BF810BD00001400002010B5012197
:100E7000064800F018F940B10121044800F00DF8CF
:100E800003480088401C0249088010BD000400404F
:100E90001A000020CA4302827047CA430282704788
:100EA00021B1028842F00102028004E002884FF67C
:100EB000FE731A400280704710B5044668488442A9
:100EC00008D10121C014FFF7D7FE0021E014FFF77D
:100ED000D3FEC4E0B4F1804F08D101210846FFF7EA
:100EE000ABFE00210120FFF7A7FEB8E05D48844279
:100EF00008D101210220FFF79FFE00210220FFF709
:100F00009BFEACE05848844208D101210420FFF741
:100F100093FE00210420FFF78FFEA0E05348844297
:100F200008D101210820FFF787FE00210820FFF7E4
:100F300083FE94E04E48844208D101211020FFF73F
:100F40007BFE00211020FFF777FE88E049488442AD
:100F500008D101212020FFF76FFE00212020FFF79C
:100F60006BFE7CE04448844208D101214014FFF725
:100F700083FE00216014FFF77FFE70E03F4884424B
:100F800009D10121C804FFF777FE00214FF40020AA
:100F9000FFF772FE63E03A48844209D10121080557
:100FA000FFF76AFE00214FF48010FFF765FE56E060
:100FB0003448844209D101214805FFF75DFE002134
:100FC0004FF40010FFF758FE49E02F48844208D143
:100FD00001214020FFF730FE00214020FFF72CFECA
:100FE0003DE02A48844208D101218020FFF724FEF9
:100FF00000218020FFF720FE31E02548844208D1FF
:1010000001218015FFF718FE0021A015FFF714FE3F
:1010100025E02048844209D101210804FFF72CFE75
:1010200000214FF48030FFF727FE18E01A48844271
:1010300009D101214804FFF71FFE00214FF40030C1
:10104000FFF71AFE0BE01548844208D101218804FD
:10105000FFF712FE00214FF48020FFF70DFE10BDB8
:10106000002C01400004004000080040000C00403B
:10107000001000400014004000340140004C0140CA
:10108000005001400054014000180040001C004086
:101090000020004000400140004401400048014061
:1010A0000146888C704730B502460020002300249A
:1010B000158A05EA0103958905EA010413B10CB10B
:1010C000012000E0002030BD1AB183890B438381E9
:1010D00002E083898B4383817047818470470000DD
:1010E000002202881D4B98420ED01D4B98420BD017
:1010F000B0F1804F08D01B4B984205D01A4B984254
:1011000002D01A4B984204D14FF68F731A404B8885
:101110001A43174B984207D0164B984204D04FF60B
:10112000FF431A40CB881A4302808B8883850B8843
:1011300003850A4B98420BD0094B984208D00E4BBE
:10114000984205D00D4B984202D00D4B984201D1E8
:101150000B7A03860123838270470000002C014034
:10116000003401400004004000080040000C004032
:1011700000100040001400400040014000440140C5
:101180000048014000BFFEE72DE9F04105462C462E
:101190004FF480711248FFF75CFA00261CE02746E6
:1011A00007F08007802F04D1B9000D48FFF753FAEC
:1011B00004E04FF400710A48FFF74BFA6006040E92
:1011C0004FF480710648FFF746FA4FF480710448E7
:1011D000FFF73FFA701CC6B2082EE0DBBDE8F081D5
:1011E000000C014010B50446FFF718FB7820FFF70C
:1011F000CBFFFFF73FFB0020FFF7C6FFFFF73AFBEF
:101200002046FFF7C1FFFFF735FBFFF71FFB10BDBF
:1012100010B50446FFF702FB7820FFF7B5FFFFF794
:1012200029FB4020FFF7B0FFFFF724FB2046FFF724
:10123000ABFFFFF71FFBFFF709FB10BD02E008C87B
:10124000121F08C1002AFAD170477047002001E040
:1012500001C1121F002AFBD17047000010B56FF0CA
:101260000400FFF7A9FD0A4800680A49B0FBF1F045
:10127000094908700846007800EB4001C1EBC01036
:101280004FF6FF7101EAC0000449088010BD00005C
:101290000000002000127A00160000201800002034
:1012A0000146114A12884A434FF0E0235A61002256
:1012B0009A611A46126942F001021A6100BF4FF0AA
:1012C000E022106900F001021AB100F48032002A15
:1012D000F5D04FF0E022126922F001024FF0E02336
:1012E0001A6100229A617047180000200146114AD5
:1012F00012784A434FF0E0235A6100229A611A465D
:10130000126942F001021A6100BF4FF0E022106939
:1013100000F001021AB100F48032002AF5D04FF03B
:10132000E022126922F001024FF0E0231A6100224C
:101330009A6170471600002008B5FFF78FFFFFF78E
:101340000DFBFFF707FA0020FFF7E8FA10231FA2B2
:1013500002210846FFF736FC37E0FFF79BF9064607
:10136000FEF7E0FF05466420B5FBF0F610200423ED
:101370003246022100903420FFF7E0FB102315A233
:1013800002215520FFF71EFC6420B5FBF0F100FBA5
:1013900011540A2C0ED21020022322461946009026
:1013A0005D20FFF7CBFB10230BA202215D20FFF78E
:1013B00009FC07E0102002232246194600905D2018
:1013C000FFF7BCFBC820FFF76BFFC6E744697374E7
:1013D0002E3A00002E0000003000000010B502463A
:1013E000012000E050430B1EA1F10104E1B2F9D14C
:1013F00010BD0000000000000000002F00000000F1
:101400000700070000147F147F1400242A7F2A128B
:10141000006264081323003649552250000005037A
:10142000000000001C224100000041221C000014AA
:10143000083E08140008083E0808000000A06000EC
:10144000000808080808000060600000002010087C
:101450000402003E5149453E0000427F40000042E8
:1014600061514946002141454B31001814127F104B
:10147000002745454539003C4A494930000171097A
:10148000050300364949493600064949291E00002E
:1014900036360000000056360000000814224100D5
:1014A0000014141414140000412214080002015105
:1014B000090600324959513E007C1211127C007F0E
:1014C00049494936003E41414122007F4141221CA9
:1014D000007F49494941007F09090901003E41490E
:1014E000497A007F0808087F0000417F4100002002
:1014F00040413F01007F08142241007F40404040AE
:10150000007F020C027F007F0408107F003E4141F3
:10151000413E007F09090906003E4151215E007FDE
:10152000091929460046494949310001017F010155
:10153000003F4040403F001F2040201F003F4038F8
:10154000403F006314081463000708700807006137
:101550005149454300007F41410000552A552A5515
:10156000000041417F0000040201020400404040AD
:101570004040000001020400002054545478007FD1
:101580004844443800384444442000384444487FA8
:1015900000385454541800087E0901020018A4A40D
:1015A000A47C007F080404780000447D40000040D3
:1015B00080847D00007F102844000000417F4000AF
:1015C000007C04180478007C080404780038444443
:1015D000443800FC242424180018242418FC007C1F
:1015E0000804040800485454542000043F44402098
:1015F000003C4040207C001C2040201C003C40302F
:10160000403C004428102844001CA0A0A07C0044BA
:1016100064544C441414141414140000000000000A
:1016200000000000000000000000000000F80000C2
:101630000000000000333000000000100C06100C09
:101640000600000000000000000040C07840C078A4
:101650004000043F04043F040400007088FC08308C
:101660000000001820FF211E0000F008F000E01824
:10167000000000211C031E211E0000F008887000DD
:1016800000001E2123241927211010160E0000002F
:1016900000000000000000000000000000E018044E
:1016A0000200000000071820400000020418E000BB
:1016B00000000040201807000000404080F08040FB
:1016C00040000202010F01020200000000F00000D1
:1016D00000000101011F01010100000000000000E5
:1016E000000080B07000000000000000000000005A
:1016F00000000001010101010101000000000000E3
:101700000000003030000000000000000000806099
:101710001804006018060100000000E0100808101E
:10172000E000000F102020100F00001010F8000043
:1017300000000020203F20200000007008080888DA
:1017400070000030282422213000003008888848AA
:1017500030000018202020110E000000C02010F8DA
:10176000000000070424243F240000F808888808AB
:1017700008000019212020110E0000E010888818B0
:101780000000000F112020110E0000380808C83892
:1017900008000000003F0000000000708808088872
:1017A0007000001C222121221C0000E010080810FB
:1017B000E0000000312222110F00000000C0C00034
:1017C0000000000000303000000000000080000039
:1017D0000000000080600000000000008040201039
:1017E0000800000102040810200040404040404032
:1017F0004000040404040404040000081020408095
:1018000000000020100804020100007048080808C9
:10181000F0000000003036010000C030C828E81099
:10182000E0000718272423140B000000C038E00054
:101830000000203C23020227382008F8888888709E
:101840000000203F202020110E00C03008080808AA
:101850003800071820202010080008F80808081091
:10186000E000203F202020100F0008F88888E808BA
:101870001000203F20202320180008F88888E8085E
:101880001000203F200003000000C0300808083886
:10189000000007182020221E020008F80800000897
:1018A000F808203F210101213F20000808F808081E
:1018B00000000020203F2020000000000808F80859
:1018C0000800C08080807F00000008F888C02818C9
:1018D0000800203F20012638200008F808000000FA
:1018E0000000203F20202020300008F8F800F8F801
:1018F0000800203F003F003F200008F830C00008EB
:10190000F808203F200007183F00E01008080810E2
:10191000E0000F10202020100F0008F80808080829
:10192000F000203F210101010000E010080808102C
:10193000E0000F18242438504F0008F88888888861
:101940007000203F2000030C302000708808080839
:1019500038000038202121221C00180808F8080847
:1019600018000000203F2000000008F808000008D0
:10197000F808001F202020201F000878880000C8D9
:101980003808000007380E010000F80800F80008C9
:10199000F800033C0700073C0300081868808068D3
:1019A000180820302C03032C30200838C800C83811
:1019B00008000000203F2000000010080808C83878
:1019C00008002038262120201800000000FE020216
:1019D00002000000007F40404000000C30C00000CA
:1019E0000000000000010638C00000020202FE00F4
:1019F0000000004040407F0000000000040202029E
:101A000004000000000000000000000000000000D2
:101A100000008080808080808080000202040000BE
:101A200000000000000000000000000080808080B6
:101A300000000019242222223F2008F800808000A4
:101A40000000003F112020110E0000000080808067
:101A50000000000E1120202011000000008080886E
:101A6000F800000E112020103F20000080808080B0
:101A70000000001F222222221300008080F08888AC
:101A800088180020203F20200000000080808080F7
:101A90008000006B94949493600008F8008080802C
:101AA0000000203F210000203F2000809898000087
:101AB00000000020203F20200000000000809898B7
:101AC000000000C08080807F000008F80000808057
:101AD0008000203F24022D302000000808F800007C
:101AE00000000020203F2020000080808080808037
:101AF0008000203F20003F20003F808000808080C9
:101B00000000203F210000203F20000080808080D6
:101B10000000001F202020201F0080800080800007
:101B2000000080FFA12020110E00000000808080B6
:101B30008000000E112020A0FF8080808000808027
:101B4000800020203F212000010000008080808054
:101B500080000033242424241900008080E0808049
:101B600000000000001F2020000080800000008096
:101B70008000001F202020103F20808080000080F7
:101B8000808000010E300806010080800080008007
:101B900080800F300C030C300F00008080008080AC
:101BA00080000020312E0E312000808080000080D7
:101BB000808080818E701806010000808080808087
:101BC00080000021302C2221300000000000807CA9
:101BD000020200000000003F404000000000FF0043
:101BE000000000000000FF0000000002027C8000F6
:101BF00000000040403F000000000006010102021A
:101C00000404000000000000000000002C1C00087C
:101C1000000000201C0000003C120008481C0008C6
:101C20001C000020040400004C12000800A24A041A
:101C3000000000000000000001020304060708097C
:081C400000000000000000009C
:04000005080000ED02
:00000001FF
