:020000040800F2
:1000000018040020050100087D0300080103000812
:10001000790300084D0100084D0A000800000000A7
:10002000000000000000000000000000550700086C
:1000300051010008000000001107000869080008CD
:100040001F0100081F0100081F0100081F01000810
:100050001F0100081F0100081F0100081F01000800
:100060001F0100081F0100081F0100081F010008F0
:100070001F0100081F0100081F0100081F010008E0
:100080001F0100081F0100081F0100081F010008D0
:100090001F0100081F0100081F0100081F010008C0
:1000A0001F0100081F0100081F0100081F010008B0
:1000B0001F0100081F0100081F0100081F010008A0
:1000C0001F0100081F0100081F0100081F01000890
:1000D0001F0100081F0100081F0100081F01000880
:1000E0001F0100081F0100081F010008DFF810D0E1
:1000F00000F01AF800480047B50B0008AFF3008085
:10010000180400200648804706480047FEE7FEE73F
:10011000FEE7FEE7FEE7FEE7FEE7FEE7FEE7FEE7B7
:100120006D080008ED000008064C074D06E0E06889
:1001300040F0010394E8070098471034AC42F6D32E
:10014000FFF7D8FF541400087414000800BFFEE73E
:1001500070472DE9F04102460025002600200023CB
:100160000024002791F803C00CF00F0591F803C09C
:100170000CF0100CBCF1000F03D091F802C04CEA57
:10018000050591F800C0BCF1000F31D014680020C3
:100190002BE04FF0010C0CFA00F3B1F800C00CEAB0
:1001A00003069E4220D183004FF00F0C0CFA03F798
:1001B000BC4305FA03FC4CEA040491F803C0BCF10B
:1001C000280F06D14FF0010C0CFA00FCC2F814C045
:1001D0000AE091F803C0BCF1480F05D14FF0010CC3
:1001E0000CFA00FCC2F810C0401C0828D1D31460DF
:1001F000B1F800C0BCF1FF0F34DD546800202EE0E0
:1002000000F1080C4FF0010808FA0CF3B1F800C037
:100210000CEA03069E4221D183004FF00F0C0CFA2A
:1002200003F7BC4305FA03FC4CEA040491F803C04D
:10023000BCF1280F05D100F1080C08FA0CF8C2F83F
:10024000148091F803C0BCF1480F07D100F1080CED
:100250004FF0010808FA0CF8C2F81080401C08287A
:10026000CED35460BDE8F081F0B50A4600230024E7
:100270000021002500F00046B6F1004F02D11D4ECE
:10028000F16901E01B4E7168C0F3034583B200F4CD
:100290004016B6F5401F08D121F07061154E766802
:1002A00026F07066134F7E6012E000F48016B6F5FB
:1002B000801F06D1032606FA05F4A14341F07061C0
:1002C00006E0460D360103FA06F6B14341F07061CF
:1002D00022B1460D360103FA06F6314300F000461E
:1002E000B6F1004F02D1034EF16101E0014E7160A1
:1002F000F0BD00000000014041617047016170479E
:1003000000BFFEE710B54FF480710948FFF7F6FF14
:100310004FF400710648FFF7F1FF4FF400710448F5
:10032000FFF7EAFF4FF480710148FFF7E5FF10BDCA
:10033000000C014010B54FF480710748FFF7DEFF55
:100340004FF400710448FFF7D7FF4FF400710248E3
:10035000FFF7D4FF10BD0000000C014010B54FF4B2
:1003600080710448FFF7CAFF4FF480710148FFF71E
:10037000C3FF10BD000C014000BFFEE7704770B521
:100380000646002418E004F1B000002100F069F9ED
:100390000021084600F065F90021102000F061F905
:1003A000002505E00121304600F05BF9681CC5B26C
:1003B000802DF7DB601CC4B2082CE4DB70BD0000AC
:1003C00008B50121082000F0B5F94FF44070ADF8F0
:1003D000000010208DF8030003208DF8020069460C
:1003E0003B48FFF7B6FE4FF440713948FFF786FFF0
:1003F000C82000F0B9FB0021AE2000F032F9002146
:10040000084600F02EF90021102000F02AF9002102
:10041000402000F026F90021B02000F022F9002150
:10042000812000F01EF90021FF2000F01AF90021C0
:10043000A12000F016F90021A62000F012F90021F9
:10044000A82000F00EF900213F2000F00AF9002159
:10045000C82000F006F90021D32000F002F90021A5
:10046000084600F0FEF80021D52000F0FAF800213F
:10047000802000F0F6F80021D82000F0F2F80021EA
:10048000052000F0EEF80021D92000F0EAF8002164
:10049000F12000F0E6F80021DA2000F0E2F8002177
:1004A000122000F0DEF80021DB2000F0DAF8002155
:1004B000302000F0D6F800218D2000F0D2F8002185
:1004C000142000F0CEF80021AF2000F0CAF808BDDB
:1004D000000C014070B504460D4605F1B000002146
:1004E00000F0BFF8102141EA1410002100F0B9F823
:1004F00004F00F00002100F0B4F870BD2DE9F047C2
:1005000007460E469046994600250024A8F1200093
:10051000C5B27F2F02DD0027B01CC6B2B9F1100FA3
:1005200024D131463846FFF7D5FF002408E004EB1C
:100530000511194A505C012100F093F8601CC4B207
:10054000082CF4DB701CC1B23846FFF7C3FF00244F
:1005500009E004EB051108310F4A505C012100F05D
:1005600080F8601CC4B2082CF3DB12E03146384638
:10057000FFF7B0FF00240AE005EB4501074A02EB54
:100580004101085D012100F06CF8601CC4B2062C2A
:10059000F2DBBDE8F0870000620E00083A0C0008AC
:1005A0002DE9FF5F074691461E460E9D4FF0000A5B
:1005B000002435E0301B401EC1B20A2000F032FB9F
:1005C000B9FBF0F00A21B0FBF1F201FB1208BAF11D
:1005D000000F14D1701EA04211DDB8F1000F0CD134
:1005E000AB4605EBDB71491001FB0471C8B22B4629
:1005F00020220199FFF782FF10E04FF0010AAB467D
:1006000005EBDB71491001FB0471C8B208F1300140
:10061000CAB22B460199FFF771FF00BF601CC4B23C
:10062000B442C7DBBDE8FF9F2DE9F04104460F4609
:100630001546984600260FE0AA5D434639462046F7
:10064000FFF75CFF04F10800C4B2782C02DD00243F
:10065000B81CC7B2701CC6B2A85D0028ECD1BDE8BA
:10066000F08170B504460D461DB1E0B200F034FAD9
:1006700002E0E0B200F01AFA70BD000030B589B0B7
:1006800005460C460121022000F044F80121092012
:1006900000F050F801211B48FFF7E6FD2020ADF8DF
:1006A000200018208DF8230001208DF8220008A9D1
:1006B0001548FFF74EFDADF81850ADF81440002076
:1006C000ADF81A00ADF8160005A9104800F06CF955
:1006D0006020ADF804000120ADF806000020ADF860
:1006E0000C00ADF80A0001A9084800F0FBF8082149
:1006F000064800F049F90121044800F0E7F809B084
:1007000030BD000000081A00000C01400004004049
:100710007047000029B1064AD2690243044BDA61EE
:1007200004E0034AD2698243014BDA61704700005A
:100730000010024029B1064A92690243044B9A61B3
:1007400004E0034A92698243014B9A6170470000BA
:1007500000100240704710B500F002F810BD000014
:100760000CB50020019000903348006840F48030C0
:100770003149086000BF3048006800F40030009044
:100780000198401C0190009818B90198B0F5A06F2D
:10079000F1D12948006800F4003010B10120009028
:1007A00001E0002000900098012843D12348006810
:1007B00040F01000214908600846006820F007005A
:1007C00008600846006840F0020008601A48406867
:1007D000194948600846406848600846406840F447
:1007E000806048600846406820F47C1048600846F5
:1007F000406840F4E81048600846006840F08070A7
:10080000086000BF0C48006800F000700028F9D0B4
:100810000948406820F003000749486008464068DE
:1008200040F00200486000BF0348406800F00C0040
:100830000828F9D10CBD0000001002400020024041
:10084000042808D14FF0E021096941F004014FF07C
:10085000E022116107E04FF0E021096921F0040175
:100860004FF0E022116170477047000010B5134847
:10087000006840F0010011490860084640681049CE
:1008800008400E494860084600680E4908400B4978
:1008900008600846006820F4802008600846406828
:1008A00020F4FE0048604FF41F008860FFF753FFFC
:1008B0004FF000600449086010BD000000100240C5
:1008C0000000FFF8FFFFF6FE08ED00E021B102880E
:1008D00042F00102028004E002884FF6FE731A40E3
:1008E0000280704770B5002400220023058C4FF66B
:1008F000EF7635400584028C8388048B48F6FF75BB
:100900002C404FF6FF452C400D884FF6FF7606EA47
:1009100005252C434FF6DF752A400D8906EA05159B
:100920002A434D8806EA05152A43154DA84202D0F0
:10093000144DA8421DD14FF67F752A404D894FF6C0
:10094000FF7606EA05152A434FF6BF752A408D88C3
:1009500006EA05152A434FF6FF352B404FF2FF7587
:100960002B408D8906EA85052B43CD8906EA85054E
:100970002B4383800483CD880587028470BD0000EB
:10098000002C0140003401400A460021018B4FF247
:10099000FF7319404FF6FF7303EA022319430183E3
:1009A0007047018770470000002202881D4B984263
:1009B0000ED01D4B98420BD0B0F1804F08D01B4B8E
:1009C000984205D01A4B984202D01A4B984204D153
:1009D0004FF68F731A404B881A43174B984207D033
:1009E000164B984204D04FF6FF431A40CB881A4367
:1009F00002808B8883850B8803850A4B98420BD035
:100A0000094B984208D00E4B984205D00D4B9842A6
:100A100002D00D4B984201D10B7A038601238382C9
:100A200070470000002C01400034014000040040E9
:100A300000080040000C004000100040001400407E
:100A400000400140004401400048014000BFFEE773
:100A50002DE9F04105462C464FF480711248FFF70E
:100A60004BFC00261CE0274607F08007802F04D1AE
:100A7000B9000D48FFF742FC04E04FF400710A484A
:100A8000FFF73AFC6006040E4FF480710648FFF74A
:100A900035FC4FF480710448FFF72EFC701CC6B281
:100AA000082EE0DBBDE8F081000C014010B50446E3
:100AB000FFF728FC7820FFF7CBFFFFF74FFC002063
:100AC000FFF7C6FFFFF74AFC2046FFF7C1FFFFF71D
:100AD00045FCFFF72FFC10BD10B50446FFF712FCD4
:100AE0007820FFF7B5FFFFF739FC4020FFF7B0FF94
:100AF000FFF734FC2046FFF7ABFFFFF72FFCFFF7B3
:100B000019FC10BD02E008C8121F08C1002AFAD162
:100B100070477047002001E001C1121F002AFBD17D
:100B20007047000010B56FF00400FFF789FE0A4817
:100B300000680A49B0FBF1F00949087008460078DE
:100B400000EB4001C1EBC0104FF6FF7101EAC0009D
:100B50000449088010BD00000000002000127A0047
:100B600014000020160000200146114A12884A4352
:100B70004FF0E0235A6100229A611A46126942F04E
:100B800001021A6100BF4FF0E022106900F001027B
:100B90001AB100F48032002AF5D04FF0E022126939
:100BA00022F001024FF0E0231A6100229A6170479F
:100BB0001600002008B501240125FFF7B3FFFFF759
:100BC000FFFB0020FFF7DBFB102313A202210846E6
:100BD000FFF72AFD41F61F416320FFF74FFD1AE0A2
:100BE000102003232246022100903C20FFF7D8FC6E
:100BF0001E20FFF7B9FF15B1601C84B201E0601E32
:100C000084B2642C00DB0025012C00DC0125214688
:100C10000348FFF7C6FEE3E7436F756E743A0000C2
:100C20000004004010B50246012000E050430B1EB6
:100C3000A1F10104E1B2F9D110BD000000000000F3
:100C40000000002F000000000700070000147F14C0
:100C50007F1400242A7F2A120062640813230036BE
:100C60004955225000000503000000001C224100ED
:100C7000000041221C000014083E08140008083E31
:100C80000808000000A0600000080808080800002C
:100C900060600000002010080402003E5149453EFB
:100CA0000000427F40000042615149460021414519
:100CB0004B31001814127F10002745454539003C80
:100CC0004A4949300001710905030036494949364E
:100CD00000064949291E000036360000000056363D
:100CE0000000000814224100001414141414000021
:100CF0004122140800020151090600324959513EAF
:100D0000007C1211127C007F49494936003E414166
:100D10004122007F4141221C007F49494941007F17
:100D200009090901003E4149497A007F0808087F06
:100D30000000417F4100002040413F01007F081436
:100D40002241007F40404040007F020C027F007F34
:100D50000408107F003E4141413E007F0909090619
:100D6000003E4151215E007F09192946004649494C
:100D700049310001017F0101003F4040403F001F19
:100D80002040201F003F4038403F00631408146398
:100D900000070870080700615149454300007F4182
:100DA000410000552A552A55000041417F000004AA
:100DB00002010204004040404040000001020400E3
:100DC000002054545478007F484444380038444448
:100DD000442000384444487F0038545454180008D4
:100DE0007E0901020018A4A4A47C007F08040478F2
:100DF0000000447D4000004080847D00007F10287A
:100E000044000000417F4000007C04180478007C0E
:100E10000804047800384444443800FC242424188E
:100E20000018242418FC007C0804040800485454CA
:100E3000542000043F444020003C4040207C001CE3
:100E40002040201C003C4030403C004428102844F6
:100E5000001CA0A0A07C004464544C44141414143E
:100E6000141400000000000000000000000000005A
:100E70000000000000F80000000000000033300017
:100E8000000000100C06100C06000000000000001E
:100E9000000040C07840C0784000043F04043F0494
:100EA0000400007088FC08300000001820FF211E9C
:100EB0000000F008F000E018000000211C031E21D3
:100EC0001E0000F00888700000001E21232419274E
:100ED000211010160E0000000000000000000000AD
:100EE0000000000000E018040200000000071820C5
:100EF000400000020418E000000000402018070035
:100F00000000404080F0804040000202010F0102DA
:100F10000200000000F0000000000101011F0101BB
:100F20000100000000000000000080B07000000020
:100F300000000000000000000000000101010101AC
:100F4000010100000000000000000030300000003F
:100F50000000000000008060180400601806010016
:100F6000000000E010080810E000000F1020201022
:100F70000F00001010F8000000000020203F20208B
:100F80000000007008080888700000302824222122
:100F900030000030088888483000001820202011D8
:100FA0000E000000C02010F8000000070424243FB9
:100FB000240000F808888808080000192120201162
:100FC0000E0000E0108888180000000F112020118A
:100FD0000E0000380808C83808000000003F000074
:100FE00000000070880808887000001C222121225F
:100FF0001C0000E010080810E0000000312222115F
:101000000F00000000C0C0000000000000303000F1
:101010000000000000800000000000008060000070
:1010200000000000804020100800000102040810A9
:1010300020004040404040404000040404040404B8
:101040000400000810204080000000201008040266
:101050000100007048080808F00000000030360168
:101060000000C030C828E810E00007182724231427
:101070000B000000C038E0000000203C23020227E3
:10108000382008F8888888700000203F2020201130
:101090000E00C0300808080838000718202020106B
:1010A000080008F808080810E000203F2020201061
:1010B0000F0008F88888E8081000203F202023202F
:1010C000180008F88888E8081000203F2000030076
:1010D0000000C03008080838000007182020221E31
:1010E000020008F808000008F808203F210101214B
:1010F0003F20000808F8080800000020203F2020BA
:10110000000000000808F8080800C08080807F0008
:10111000000008F888C028180800203F2001263861
:10112000200008F8080000000000203F20202020B8
:10113000300008F8F800F8F80800203F003F003FB2
:10114000200008F830C00008F808203F20000718E9
:101150003F00E01008080810E0000F1020202010C9
:101160000F0008F808080808F000203F21010101DD
:101170000000E01008080810E0000F182424385080
:101180004F0008F8888888887000203F2000030CF2
:1011900030200070880808083800003820212122FB
:1011A0001C00180808F8080818000000203F20005C
:1011B000000008F808000008F808001F2020202080
:1011C0001F000878880000C83808000007380E01A2
:1011D0000000F80800F80008F800033C0700073C8E
:1011E0000300081868808068180820302C03032C3E
:1011F00030200838C800C83808000000203F200010
:10120000000010080808C8380800203826212020CF
:101210001800000000FE020202000000007F4040B3
:101220004000000C30C00000000000000001063843
:10123000C00000020202FE000000004040407F00AB
:101240000000000004020202040000000000000090
:10125000000000000000000000008080808080808E
:101260008080000202040000000000000000000076
:1012700000000000808080800000001924222222CB
:101280003F2008F8008080000000003F112020115E
:101290000E000000008080800000000E1120202041
:1012A0001100000000808088F800000E112020103E
:1012B0003F200000808080800000001F2222222228
:1012C0001300008080F0888888180020203F2020AC
:1012D00000000000808080808000006B94949493D4
:1012E000600008F8008080800000203F210000207E
:1012F0003F2000809898000000000020203F202020
:101300000000000000809898000000C08080807F6E
:10131000000008F8000080808000203F24022D306B
:101320002000000808F8000000000020203F2020D6
:1013300000008080808080808000203F20003F204F
:10134000003F8080008080800000203F210000203E
:101350003F200000808080800000001F202020208F
:101360001F00808000808000000080FFA1202011ED
:101370000E000000008080808000000E112020A060
:10138000FF80808080008080800020203F2120001E
:101390000100000080808080800000332424242409
:1013A0001900008080E0808000000000001F2020E5
:1013B00000008080000000808000001F202020109E
:1013C0003F20808080000080808000010E30080671
:1013D000010080800080008080800F300C030C3082
:1013E0000F0000808000808080000020312E0E31B0
:1013F0002000808080000080808080818E701806B0
:10140000010000808080808080000021302C22211B
:10141000300000000000807C020200000000003F5D
:10142000404000000000FF00000000000000FF003E
:1014300000000002027C800000000040403F0000ED
:101440000000000601010202040400000000000088
:1014500000000000741400080000002018000000C4
:10146000040B00088C140008180000200004000081
:10147000140B000800A24A04000000000000000055
:0C14800001020304060708090000000038
:04000005080000ED02
:00000001FF
