:020000040800F2
:1000000030040020050100087102000869020008A0
:100010006D0200084D0100081509000800000000ED
:100020000000000000000000000000003104000893
:100030005101000800000000F90200084505000811
:100040001F0100081F0100081F0100081F01000810
:100050001F0100081F0100081F0100081F01000800
:100060001F0100081F0100081F0100081F010008F0
:100070001F0100081F0100081F0100081F010008E0
:100080001F0100081F0100081F0100081F010008D0
:100090001F0100081F0100081F0100081F010008C0
:1000A0001F0100081F0100081F0100081F010008B0
:1000B0001F0100081F0100081F0100081F010008A0
:1000C0001F0100081F0100081F0100081F01000890
:1000D0001F010008A90500081F0100081F010008F2
:1000E0001F0100081F0100081F010008DFF810D0E1
:1000F00000F01AF8004800477D090008AFF30080BF
:10010000300400200648804706480047FEE7FEE727
:10011000FEE7FEE7FEE7FEE7FEE7FEE7FEE7FEE7B7
:1001200049050008ED000008064C074D06E0E068B0
:1001300040F0010394E8070098471034AC42F6D32E
:10014000FFF7D8FF8C090008AC09000800BFFEE7E4
:1001500070472DE9F04102460025002600200023CB
:100160000024002791F803C00CF00F0591F803C09C
:100170000CF0100CBCF1000F03D091F802C04CEA57
:10018000050591F800C0BCF1000F31D014680020C3
:100190002BE04FF0010C0CFA00F3B1F800C00CEAB0
:1001A00003069E4220D183004FF00F0C0CFA03F798
:1001B000BC4305FA03FC4CEA040491F803C0BCF10B
:1001C000280F06D14FF0010C0CFA00FCC2F814C045
:1001D0000AE091F803C0BCF1480F05D14FF0010CC3
:1001E0000CFA00FCC2F810C0401C0828D1D31460DF
:1001F000B1F800C0BCF1FF0F34DD546800202EE0E0
:1002000000F1080C4FF0010808FA0CF3B1F800C037
:100210000CEA03069E4221D183004FF00F0C0CFA2A
:1002200003F7BC4305FA03FC4CEA040491F803C04D
:10023000BCF1280F05D100F1080C08FA0CF8C2F83F
:10024000148091F803C0BCF1480F07D100F1080CED
:100250004FF0010808FA0CF8C2F81080401C08287A
:10026000CED35460BDE8F08100BFFEE700BFFEE7DB
:100270007047000070B5002100230F22C47804B33A
:10028000154C246804F4E064C4F5E064210AC1F16B
:100290000403CA40447804FA03F1847814402143EB
:1002A00009010E4C0678A155047804F01F050124BD
:1002B000AC4005786D11AD0005F1E025C5F80041B1
:1002C00009E0047804F01F050124AC40044D0678D1
:1002D000761145F8264070BD0CED00E000E400E02A
:1002E00080E100E002490143024A116070470000CA
:1002F0000000FA050CED00E07047000029B1064A45
:1003000012690243044B1A6104E0034A12698243F2
:10031000014B1A61704700000010024029B1064AE3
:1003200092690243044B9A6104E0034A9269824352
:10033000014B9A61704700000010024029B1064A43
:10034000D2680243044BDA6004E0034AD268824375
:10035000014BDA60704700000010024030B5002108
:100360000022002400232D4D6D6805F00C0121B101
:10037000042905D0082923D105E0294D056022E094
:10038000274D05601FE0254D6D6805F47012234D63
:100390006D6805F48034022505EB92421CB9214DAD
:1003A000554305600BE01D4D6D6805F400351DB12A
:1003B0001C4D5543056002E0194D5543056002E0B0
:1003C000174D056000BF00BF144D6D6805F0F001CA
:1003D0000909154D6B5C0568DD4045600F4D6D6882
:1003E00005F4E061090A104D6B5C4568DD408560ED
:1003F0000A4D6D6805F46051C90A0B4D6B5C456888
:10040000DD40C560054D6D6805F44041890B074D21
:100410006B5CC568B5FBF3F5056130BD00100240AB
:1004200000127A0000093D00140000202400002082
:10043000704710B500F002F810BD00000CB50020A8
:10044000019000903348006840F4803031490860E2
:1004500000BF3048006800F4003000900198401C54
:100460000190009818B90198B0F5A06FF1D1294812
:10047000006800F4003010B10120009001E000207D
:1004800000900098012843D12348006840F01000F4
:10049000214908600846006820F007000860084607
:1004A000006840F0020008601A4840681949486036
:1004B0000846406848600846406840F480604860EC
:1004C0000846406820F47C1048600846406840F4C4
:1004D000E81048600846006840F08070086000BF7F
:1004E0000C48006800F000700028F9D00948406806
:1004F00020F00300074948600846406840F00200C9
:10050000486000BF0348406800F00C000828F9D19B
:100510000CBD00000010024000200240042808D159
:100520004FF0E021096941F004014FF0E022116130
:1005300007E04FF0E021096921F004014FF0E022CB
:10054000116170477047000010B51348006840F013
:1005500001001149086008464068104908400E49EA
:100560004860084600680E4908400B490860084684
:10057000006820F4802008600846406820F4FE00EF
:1005800048604FF41F008860FFF753FF4FF0006092
:100590000449086010BD0000001002400000FFF890
:1005A000FFFFF6FE08ED00E010B540F225510D48C2
:1005B00000F093F8A8B10B4800F04AF90A49087016
:1005C00008460178074800F048F940F225510548EF
:1005D00000F00CF800BF8021024800F071F80028FC
:1005E000F9D010BD003801402800002010B50022CD
:1005F000002340F66A14A14200D100BF0A12012470
:100600009440A3B2DC43048010BD21B1828942F43E
:100610000052828104E082894DF6FF731A40828184
:100620007047000010B504462048844209D10121DA
:100630008803FFF783FE00214FF48040FFF77EFE22
:1006400032E01B48844209D101214804FFF756FEDD
:1006500000214FF40030FFF751FE25E01548844299
:1006600009D101218804FFF749FE00214FF48020C1
:10067000FFF744FE18E01048844209D10121C80464
:10068000FFF73CFE00214FF40020FFF737FE0BE0A0
:100690000A48844208D101210805FFF72FFE0021F6
:1006A0004FF48010FFF72AFE10BD00000038014013
:1006B0000044004000480040004C00400050004012
:1006C00002460020B1F5007F00D100BF13880B4027
:1006D0000BB1012000E00020704770B502460024F5
:1006E00000230025002040F66A16B14200D100BF69
:1006F000C1F3421501F01F03012606FA03F3012D91
:1007000002D19689334006E0022D02D1168A334089
:1007100001E0968A33400C12012606FA04F416888A
:10072000344013B10CB1012000E0002070BDF0B5E1
:100730000346002400260025002040F66A17B9422F
:1007400000D100BF1846C1F3421401F01F06012773
:1007500007FA06F5012C01D10C3004E0022C01D17E
:10076000103000E014301AB107682F43076002E030
:100770000768AF430760F0BD2DE9F04786B0054636
:100780000E460024A24600BFA1460027B08900B152
:1007900000BF2F462C8A4CF6FF700440F0880443BB
:1007A0002C82AC894EF6F3100440B088318908439E
:1007B000718908430443AC81AC8A4FF6FF40044082
:1007C000B0890443AC8201A8FFF7C8FD1F488742E7
:1007D00002D1DDF810A001E0DDF80CA0A88900F43A
:1007E000004040B10AEBCA0000EB0A103168490032
:1007F000B0FBF1F807E00AEBCA0000EB0A10316821
:100800008900B0FBF1F86420B8FBF0F00401200986
:10081000642101FB1089A88900F4004040B1322016
:1008200000EBC900B0FBF1F000F00700044308E062
:10083000322000EB09106421B0FBF1F000F00F0052
:1008400004432C8106B0BDE8F08700000038014069
:1008500001468888C0F308007047C1F3080282800F
:100860007047000010B586B00446012144F205002F
:10087000FFF754FD4FF40070ADF8140018208DF808
:10088000170001208DF8160005A92048FFF761FC2C
:100890004FF48060ADF8140004208DF8170005A90E
:1008A0001A48FFF756FC1A48FFF7BCFE01940020D7
:1008B000ADF80800ADF80A00ADF80C00ADF8100076
:1008C0000C20ADF80E0001A91148FFF755FF0122D9
:1008D00040F225510E48FFF72AFF01210C48FFF78F
:1008E00094FE4FF4E060FFF7FDFC25208DF800003A
:1008F00001208DF8010000208DF8020001208DF804
:1009000003006846FFF7B6FC06B010BD00080140C2
:100910000038014000BFFEE702E008C8121F08C10E
:10092000002AFAD170477047002001E001C1121F70
:10093000002AFBD17047000010B56FF00400FFF7EC
:10094000EDFD0A4800680A49B0FBF1F0094908705A
:100950000846007800EB4001C1EBC0104FF6FF7174
:1009600001EAC0000449088010BD0000000000201A
:1009700000127A002A0000202C000020FFF7DCFF84
:100980004FF4E130FFF76EFF00BFFEE7AC0900084F
:10099000000000203000000018090008DC090008F1
:1009A00030000020000400002809000800A24A04CA
:1009B000000000000000000001020304060708090F
:1009C00000000000010203040102030406070809F5
:0C09D00002040608000000000000000007
:04000005080000ED02
:00000001FF
